:020000040800F2
:10000000400800204501000853280008AD240008DE
:1000100051280008E90A0008552D000800000000DA
:100020000000000000000000000000005728000849
:10003000A90B0008000000005528000859280008F6
:100040005F0100085F0100085F0100085F01000810
:100050005F0100085F0100085F0100085F01000800
:100060005F0100085F0100085F0100085F010008F0
:100070005F0100085F0100085F0100085F010008E0
:100080005F0100085F0100085F0100085F010008D0
:100090005F0100085F0100085F0100085F010008C0
:1000A0005F0100085F0100085F0100085F010008B0
:1000B0005F010008AD280008B92800085F010008AA
:1000C0005F0100085F0100085F0100085F01000890
:1000D0005F010008492D00085F0100085F0100086A
:1000E0005F0100085F0100085F0100085F01000870
:1000F0005F0100085F010008D12800085F010008C7
:100100005F0100085F010008C52800085F010008C2
:100110005F0100085F0100085F0100085F0100083F
:100120005F0100085F0100085F0100085F0100082F
:10013000DFF80CD000F0C6FC004800477934000816
:10014000400800200648804706480047FEE7FEE7D3
:10015000FEE7FEE7FEE7FEE7FEE7FEE7FEE7FEE777
:10016000AB28000831010008202A04DB203A21FADC
:1001700002F00021704721FA02F3D040C2F12002C0
:10018000914008431946704740EA01039B0703D09A
:1001900009E008C9121F08C0042AFAD203E011F8C6
:1001A000013B00F8013B521EF9D27047D2B201E088
:1001B00000F8012B491EFBD270470022F6E710B56C
:1001C00013460A4604461946FFF7F0FF204610BDC5
:1001D000F0B480EA0102D40F4200B2EB410F02D228
:1001E0000246084611464A0042D0C30DDDB2C1F3B3
:1001F000C752AD1A202D35DAC1F3160141F40002C1
:1002000004B15242C5F1200602FA06F12A41104417
:10021000B3EBD05F23D0C4B1012DA0EBC35009DCF8
:10022000F0BC4FF0004202EAC352DBB200F500001E
:1002300000F01EBB400000F1807000EBC350A0F145
:10024000807040EAD170490009E0490841EAC07174
:10025000A0EBC35000F50000400800EBC350F0BC19
:1002600000F0FDBA6142012202EB4101001BF6E7FA
:10027000F0BC704781F00041AAE780F00040A7E79A
:1002800080EA010210B502F00043400022D04A008B
:100290001FD0010E01EB1261C0F35600C2F35602EB
:1002A00040F4000042F40002A0FB022000047F3969
:1002B000140400D0401C50EA124001D44000491EF2
:1002C000C2B20C0604EBD010401C4008802A02D0B9
:1002D00003E0002010BD20F00100002900DA00201A
:1002E000184310BD30B480EA010202F0004530F03E
:1002F000004221F0004013D090B1C30DD40DC2F3E1
:100300001601C0F31600E41A41F4000140F40002A3
:100310007D34914201D3641C00E04900002C02DAD4
:1003200030BC002070474FF400000023914201D3FD
:10033000891A034340084FEA4101F7D151B1914274
:1003400002D14FF0004105E002D24FF0010101E07F
:100350006FF0010103EBC450284430BC00F07FBAB9
:10036000420005D0C0F3C7525242914201DC002046
:10037000704700EBC15070472DE9FE4F804681EA7F
:100380000300C00F0C46009021F0004123F000450F
:10039000B8EB0200A94105D24046214690461C46D2
:1003A0000B46024623F00040104347D0270DC7F309
:1003B0000A00C3F30A510290401A019040286BDAF8
:1003C000C3F3130040F4801B0098924620B1002331
:1003D000D2EB030A63EB0B0B01985946C0F14002C4
:1003E000504600F01BFA06460D4650465946019A03
:1003F00000F023FA10EB08006141002487EA115253
:1004000084EAE7731A4340D0009A62B3019A012A42
:100410004FEA075215DC001B61EB02014FF000426E
:1004200002EA0752CDE90042001C41F58011324634
:100430002B4600F078FA03B0BDE8F08F4046214625
:10044000F9E7001B61EB0201001C41F58013001865
:100450005B412018A2F5001747EB030140EAD57075
:10046000B6196D4111E06D084FEA360645EAC075D0
:100470004FEA0752001B61EB0201001C41F580119D
:1004800049084FEA30000019514132462B4603B06B
:10049000BDE8F04F00F038BA009801224000002378
:1004A000D0EB020263EBE073009821464FEAE07460
:1004B000B8EB000061EB0401E9E783F000435BE780
:1004C00081F0004158E72DE9FE4F81EA030404F072
:1004D000004421F0004100944FF0000B23F0004352
:1004E00050EA01045ED052EA03045BD0C3F30A541D
:1004F000C1F30A552C44A4F2F3340194A0FB025436
:10050000C1F3130141F48011C3F3130343F48013C7
:1005100001FB024400FB034E840A970A44EA81541B
:1005200047EA8357A4FB076802958D0A05FB0785F8
:100530004FEA932C04FB0C542705029D4FEA065802
:1005400047EA1637B5EB08056EEB070C870E920EDF
:1005500047EA811742EA8312A7FB0201B6EB0B01BF
:1005600064EB00042B0D43EA0C335E1844EB1C5083
:10057000DA465146E7FB0201C5F313044FEA0B3399
:1005800043EA14534FEA0432019C43EA0603A4F100
:100590000C040294009CCDE900B400F0C4F903B04F
:1005A000BDE8F08F00200146F9E72DE9F04D81EA22
:1005B000030404F0004B21F0004514464FF0000AFC
:1005C00023F0004150EA050220D054EA01021DD078
:1005D000C5F30A570246C5F31303C1F31300C1F371
:1005E0000A5640F4801543F48013A7EB0608101B4D
:1005F000D64608F2FD3873EB050002D308F1010876
:1006000001E092185B41B8F1000F03DA00200146C7
:10061000BDE8F08D00204FF48011064684460EE0C0
:10062000171B73EB050705D3121B63EB050306438A
:100630004CEA010C49084FEA300092185B4150EA3D
:100640000107EDD152EA030012D082EA040083EAE6
:100650000501084305D0101BAB4106D2012200233F
:1006600006E000224FF0004302E06FF00102531059
:100670001AEB06004CEB085110EB0A0041EB0B01A2
:10068000BDE8F04D00F040B9C10F80EAE0700844C9
:10069000CA079623002100F0EBB8962300221146EA
:1006A00000F0E6B820F00040C10DC0F3160040F4A1
:1006B00000007F2901DA00207047962903DCC1F190
:1006C0009601C840704796398840704770B5C1F3AD
:1006D0000A5201F000450024C1F3130140F2FF3338
:1006E00041F480119A4201DA002070BD40F2334398
:1006F0009A42A2F2334203DC5242FFF735FD00E09A
:1007000090402C43F1D0404270BD00F0004230F0E8
:1007100000400AD0C10D01F56071C0F3160042EA35
:100720000151C2084007114370470020014670473D
:1007300030B5041E71F1000404DB4FF00044404268
:1007400064EB0101141E73F1000405DB1C464FF03D
:100750000043524263EB04038B4208BF824230BD28
:1007600030B5041E71F1000404DB4FF00044404238
:1007700064EB0101141E73F1000405DB1C464FF00D
:100780000043524263EB0403994208BF904230BDDC
:1007900001F0004330B421F0004150EA010206D0DC
:1007A0000A0DA2F56072C1F31301002A02DC30BC0D
:1007B00000207047440F44EAC104C100E01830BC77
:1007C00000EBC25000F04BB8002801DBC0F1004044
:1007D000002901DBC1F1004181427047002801DBA3
:1007E000C0F10040002901DBC1F10041884270479F
:1007F00030B50B46014600202022012409E021FAF1
:1008000002F59D4205D303FA02F5491B04FA02F5ED
:100810002844151EA2F10102F1DC30BD202A04DBC0
:10082000203A00FA02F1002070479140C2F1200303
:1008300020FA03F3194390407047202A06DBCB17B8
:10084000203A41FA02F043EAE07306E041FA02F38B
:10085000D040C2F120029140084319467047002958
:10086000A8BF7047401C490008BF20F00100704736
:1008700010B4B0FA80FC00FA0CF050EA010404BF96
:1008800010BC704749B1CCF1200421FA04F411FAEC
:100890000CF118BF012121430843A3EB0C01CB1D30
:1008A0004FEA00614FEA102042BF002010BC7047A1
:1008B00000EBC35010440029A4BF10BC7047401C7B
:1008C000490008BF20F0010010BC704710B541007E
:1008D0000CD0C0F3C751962908DC7E2909DC06DB61
:1008E000410204D000F0004040F07E5010BD0020D6
:1008F00010BDC1F19604C4F1200100FA01F1E040FD
:10090000FFF7ADFFA04010BD10B5141E73F1000439
:1009100008DA401C41F1000192185B411A4301D1F1
:1009200020F0010010BD2DE9F04D92469B4611B11B
:10093000B1FA81F202E0B0FA80F220329046FFF77D
:100940006DFF04460F4640EA0A0041EA0B01534698
:100950005A46084313D0114653EA010019D0C8F192
:1009600040025046FFF700FC05460E4650465946E9
:100970004246FFF753FF084305D0012004E020461C
:100980003946BDE8F08D0020054346EAE0762C4369
:1009900037430A986305E40AA0EB08000022FD0A29
:1009A00044EA47540A3002D500200146E9E7010530
:1009B00010196941DDE9084500196941BDE8F04DAC
:1009C000A2E770B521F0004303430CD0C1F30A55F0
:1009D0000024D5EB040564EB0403D617AD1AB3412C
:1009E00002DB0020014670BD201841EB025170BDB2
:1009F0002DE9F04D00231A461B1A8A4103DB002023
:100A00000146BDE8F08DC1F30A52C1F3130141F470
:100A100080154FF0000BD10702D100186D41521E16
:100A20000027044640F2FF11384601EB620A3E46B9
:100A30008046024600204FF48011FFF795FBC21953
:100A40007141BB1846EB0100B4EB030C75EB000CD5
:100A500004D3E41A65EB000517460E46241908F185
:100A600001006D4180463428E3DDF91946EB0600AC
:100A7000091BA84103D24FF0FF32134601E00022C8
:100A800013461BEB070046EB0A51BDE8F04DFFF79C
:100A90003BBF00F0004220F00040C10DC0F3160043
:100AA00040F400007F2901DA00207047962903DC1A
:100AB000C1F19601C84001E096398840002AF4D07F
:100AC00040427047064C074D06E0E06840F00103E5
:100AD00094E8070098471034AC42F6D3FFF72CFB9C
:100AE000603C0008803C0008FEE700002DE9F05F54
:100AF000814628488846DDF82CB0016826486439CC
:100B0000924641602549002409686439816018468D
:100B10000A99FFF7AFFB074631E000BF4FF0FF3106
:100B20005046FFF71DFC054629463046FFF7A2FB5D
:100B30005946FFF7A5FB2946FFF7D4FB80F000409C
:100B400002F0D4FB4FF07E552946FFF741FB0146EA
:100B50002846FFF7C7FB01463846FFF791FB0A9985
:100B6000FFF736FB49F824000D4850F824100D48D3
:100B7000FFF7B8FBFFF796FD28F81400641C204629
:100B8000FFF782FD06465146FFF71EFEC6D3BDE8BD
:100B9000F09F000028000020000000202C00002012
:100BA000880000204054894A704770472DE9F05F63
:100BB00090F821100024022903D00421816301242C
:100BC00085E001680A6822F00E020A6001680A687E
:100BD00022F001020A603F4E3E4FB215DFF8F4C02A
:100BE000DFF8F090DFF8ECA0DFF8E8B0DFF8E4E041
:100BF0000168783F13011502ACF1640CA9F15009AA
:100C0000AAF13C0AABF1280BAEF1140E4FF4801898
:100C1000B14227D9B9420ED0614512D049451DD005
:100C2000514518D0594518D0714501D1424615E0BB
:100C3000294EB14201D1012210E0274E1436B142B3
:100C400001D110220AE0244E2836B14206D0224AB1
:100C50003C32914201D11A4600E02A461E49091F42
:100C60000A602BE0B94213D0614517D0494522D024
:100C700051451DD059451DD0714501D142461AE05C
:100C8000B14202D14FF0807215E0134EB14201D152
:100C9000012210E0104E1436B14201D110220AE0B8
:100CA0000D4E2836B14206D00B4A3C32914201D15A
:100CB0001A4600E02A46074980394A60012180F837
:100CC0002110002180F82010416B01B18847204697
:100CD000BDE8F09F800002400804024070B5044661
:100CE00000F010F90546601C02D004480078044466
:100CF00000F008F9401BA042FAD370BD500000205C
:100D00002DE9F84FDFF8C891002409F1040A0AF12F
:100D1000040B23460F270BF1040ED1E00125A5405B
:100D200006EA0502AA4276D1DFF8A8C14E68A6EB12
:100D30000C0866452BD00DDC032E34D005DC36B311
:100D4000012E19D0022E2FD11BE0112E16D0122EFB
:100D50002AD119E0B8F5881F19D006DCB8F5803F14
:100D600015D0B8F5801F1FD111E0B8F5001F0ED0C7
:100D7000B8F5041F18D10AE0CB6815E0CB681B1D3D
:100D800012E0CB6808330FE0CB680C330CE08B68C3
:100D90002BB1012B4FF0080303D0456104E004237D
:100DA00002E0056100E00023FF2A01D8064601E0C9
:100DB00000F104064FEA840501D9A5F12005D6F813
:100DC000008007FA05FC28EA0C0803FA05F548EA52
:100DD0000508C6F800804D68ED0070D53E4DAE693F
:100DE00046F00106AE61AD6924F0030605F0010589
:100DF00000953A4D06EB050CDCF80850A607360FB7
:100E000007FA06F825EA0805DFF8D480404503D143
:100E10004FF0000825E052E0DFF8C880404502D1DD
:100E20004FF001081DE0DFF8C080404502D14FF0CF
:100E3000020816E0DFF8B480404502D14FF0030805
:100E40000FE0DFF8AC80404502D14FF0040808E025
:100E5000DFF8A080404502D14FF0050801E04FF0D7
:100E6000060808FA06F848EA0508CCF808804D6834
:100E7000D9F80060ED034D4601D5164300E09643D6
:100E80002E604D68DAF80060AD03554601D5164373
:100E900000E096432E604D68DBF80060ED025D4691
:100EA00001D5164300E096432E604D68DEF80060E1
:100EB000AD02754601D5164300E096432E60641CD2
:100EC0000A681646E2407FF429AFBDE8F88F0000BB
:100ED0000004014000001110001002400000014019
:100EE00000080140000C01400010014000140140C6
:100EF00000180140001C01400AB10161704709045B
:100F0000FBE70000014880687047000050000020A7
:100F100002488168027811448160704750000020C7
:100F2000074810B5016841F010010160032000F08E
:100F300075F8002000F006F800F024F8002010BD3D
:100F40000020024070B50D4D04464FF47A712878A8
:100F5000B1FBF0F00A490968B1FBF0F000F0ECFADF
:100F600048B9102C07D200222146501E00F036F856
:100F700000206C6070BD012070BD0000500000209A
:100F80005C0000200C4808B5816941F001018161D5
:100F9000816901F001010091C16941F08051C16195
:100FA000C06900F0805000900448416821F0E06181
:100FB00041F00071416008BD001002400000014096
:100FC000002809DB00F01F02012191404009800048
:100FD00000F1E020C0F8001170470000F0B40E4BA3
:100FE0001B680C46C3F30223C3F10705042D00D987
:100FF0000425191D072901D2002300E0DB1E01266C
:1010000006FA05F1491E214099409E40761E164081
:101010003143F0BC01F0D7BE0CED00E0064900F012
:10102000070208684FF6FF03184040EA0220034A0F
:1010300010430860704700000CED00E00000FA0566
:101040002DE9F0470F46050061D0434E306800F0AF
:101050000700B84209D2306820F0070038433060FA
:10106000306800F00700B84251D128683B4C810736
:1010700012D5400703D5606840F4E06060602878CE
:10108000000703D5606840F4605060606068A9683C
:1010900020F0F000084360602878C00728D0686816
:1010A000012810D02168022810D0890700292EDAE3
:1010B000616821F0030101436160FFF723FF80466F
:1010C00041F288390DE021688903EFE78901EDE7F6
:1010D000FFF718FFA0EB0801494502D90320BDE83E
:1010E000F0876068696800F00C00B0EB810FEFD109
:1010F000306800F00700B8420BD9306820F00700D4
:1011000038433060306800F00700B84201D0012059
:10111000E5E72878400705D56068E96820F4E060D5
:10112000084360602878000706D56068296920F4C4
:10113000605040EAC100606000F038F86168084A19
:10114000C1F30311515CC8400649086006480068B5
:10115000FFF7F8FE0020C2E7002002400010024026
:10116000803B00085C000020540000200448054932
:1011700000684968044AC1F30221515CC8407047C5
:101180005C00002000100240903B00080448054924
:1011900000684968044AC1F3C221515CC8407047E5
:1011A0005C00002000100240903B000812A185B0B6
:1011B0000FC98DE80F0014A0144A0068049051680C
:1011C000134801F00C03042B10D0082B0ED1C1F3EF
:1011D0008343C9031DF803000AD5516804AAC1F36B
:1011E0004041515C0A4A5043B0FBF1F005B07047F2
:1011F00008494843FAE70000020304050607080906
:101200000A0B0C0D0E0F101001020000001002401E
:1012100000127A0000093D002DE9F84F040070D05B
:101220002078C04DC00749D06868C0F3810001280C
:1012300007D06868C0F38100022809D16868C0033C
:1012400006D52868800339D560680028E7D035E0E6
:101250006068B0F5803F0BD010B1B0F5A02F11D071
:10126000286820F480302860286820F4802002E07C
:10127000286840F480302860606890B1FFF742FE33
:1012800006460AE0286840F480202860F0E700BFA6
:10129000FFF738FE801B642873D828688003F7D5D1
:1012A0000CE0FFF72FFE064605E000BFFFF72AFE21
:1012B000801B6428F0D828688003F7D420789A4EE1
:1012C00080074FF001094FF0000839D5686810F029
:1012D0000C0F07D06868C0F38100022809D1686844
:1012E000C00306D42868800714D52069012808D1D6
:1012F00010E02069B0B1C6F80090FFF703FE074682
:1013000005E00AE1FFF7FEFDC01B0228C4D82868EB
:101310008007F7D52868616920F0F80040EAC1002D
:1013200028600DE0C6F80080FFF7ECFD074604E0FA
:10133000FFF7E8FDC01B022823D828688007F7D4F0
:10134000207800072CD57948A169D9B1C0F8009060
:10135000FFF7D8FD074604E0FFF7D4FDC01B0228C5
:101360000FD8686A8007F7D571484FF4FA510068C2
:10137000B0FBF1F0009000BF0098411E0091FAD23E
:101380000EE080E0C0F80080FFF7BCFD074604E0F7
:10139000FFF7B8FDC01B022875D8686A8007F7D42C
:1013A0002078400760D5E8690027C00008D4E869C4
:1013B00040F08050E861E869012700F0805000901B
:1013C0005C480168C90513D40168834641F4807103
:1013D0000160FFF797FD824606E000BFFFF792FD30
:1013E000A0EB0A0064284ED8DBF80000C005F5D554
:1013F000E06801280AD008B1052813D0286A20F037
:1014000001002862286A20F0040002E0286A40F007
:1014100001002862E06841F2883B98B1FFF772FD55
:1014200082460BE0286A40F004002862EEE700BF25
:10143000FFF768FDA0EB0A0159455AD8286A8007D2
:10144000F6D50CE0FFF75EFD824605E0FFF75AFD9A
:10145000A0EB0A0159454CD8286A8007F6D41FB181
:10146000E86920F08050E861E06988B36968C1F3F9
:101470008101022944D00228C6F8608004D0FFF719
:1014800041FD044638E034E0FFF73CFD074604E048
:10149000FFF738FDC01B02282BD828688001F7D43D
:1014A000206AB0F5803F05D16868A16820F400305B
:1014B00008436860D4E908010843696821F474119D
:1014C00008436860C6F86090FFF71CFD044606E01C
:1014D00025E000BFFFF716FD001B022809D8286889
:1014E0008001F7D51BE000BFFFF70CFD001B0228B1
:1014F00002D90320BDE8F88F28688001F4D40EE0FB
:101500000128F7D06868226A00F48031914204D142
:10151000616A00F47010884201D00120EAE70020DF
:10152000E8E700000010024000004242800442420E
:101530005C0000200070004010B5401EB0F1807FBC
:1015400001D3012010BD4FF0E02460610F2160172E
:1015500001F039FC0020A06107202061002010BDAF
:101560007047704710B590F83C20012A22D0012224
:1015700080F83C20CA688C6822F4407222434C6890
:1015800022F4806222430C6822F4006222430C6938
:1015900022F4805222434C6922F400522243C9694A
:1015A000002322F480420A4301684A6480F83C30F8
:1015B000002010BD022010BD70B590F83C20012A1B
:1015C0002CD0012480F83C40022280F83D200368A2
:1015D0005A689D6822F070060A6832435A60104BC0
:1015E00002689A420ED00F4B9A420BD0B2F1804F54
:1015F00008D00D4B9A4205D00C4B9A4202D00C4BAE
:101600009A4204D1496825F080031943916080F81B
:101610003D40002180F83C10084670BD022070BD9E
:10162000002C01400034014000040040000800404C
:10163000000C004010B5040003D094F83D0010B138
:1016400007E0012010BD002084F83C00204600F097
:101650001FF8022084F83D00211D206801F03EF9AA
:10166000012084F8460084F83E0084F83F0084F8A6
:10167000400084F8410084F8420084F8430084F874
:10168000440084F8450084F83D00002010BD0000AF
:1016900008B5274A0168274891420ED1C16941F037
:1016A0000201C161C069002200F0020000901146F1
:1016B0001D20FFF793FC1D2034E01F4A91420ED1FC
:1016C000C16941F00401C161C069002200F0040059
:1016D000009011461E20FFF781FC1E2022E0174AD1
:1016E00091420ED1C16941F00801C161C069002277
:1016F00000F00800009011463220FFF76FFC322006
:1017000010E00F4A914211D1816941F40051816189
:101710008069002200F40050009011462E20FFF74F
:101720005DFC2E20BDE80840FFF74ABC08BD000064
:10173000000400400010024000080040000C00407F
:101740000034014090F83D10012901D0012070477C
:10175000022180F83D1000680E4988420ED00E49E3
:1017600088420BD0B0F1804F08D00C49884205D098
:101770000B49884202D00B49884204D1816801F0AC
:101780000701062903D0016841F001010160002032
:1017900070470000002C014000340140000400406C
:1017A00000080040000C004001680A6A41F2111371
:1017B0001A4207D10A6A9B101A4203D10A6822F022
:1017C00001020A60012180F83D100020704770B5C9
:1017D000044690F83C00012817D0012584F83C50BD
:1017E000022084F83D002068826822F0770222F40B
:1017F0007F4282600868502830D00DDC20284DD010
:1018000005DC98B310283BD148E0022070BD302899
:1018100044D0402834D139E0602828D0702806D040
:10182000B0F5805F2CD0B0F5005F29D10AE0CB681D
:10183000D1E90121206801F0A4F82068816841F015
:10184000770109E0CB68D1E90121206801F099F81E
:101850002068816841F48041816011E0CA6849686C
:10186000206801F063F95021206807E016E0CA689B
:101870004968206801F06BF96021206801F08BF85D
:1018800084F83D50002084F83C0070BDCA68496867
:10189000206801F04BF940212068EFE722680146FB
:1018A0001046EBE7704770B50446006801694FF0D9
:1018B0000005C943890715D4C168C943890711D4F4
:1018C000E91E016101202077206880698007204699
:1018D00002D0FFF7E7FF04E000F02CF9204600F00B
:1018E00082FB257720680169C943490717D4C1687D
:1018F000C943490713D46FF0040101610220207726
:101900002068806910F4407F204602D0FFF7CAFFAC
:1019100004E000F00FF9204600F065FB2577206811
:101920000169C943090716D4C168C943090712D41C
:101930006FF008010161042020772068C0698007EA
:10194000204602D0FFF7AEFF04E000F0F3F8204697
:1019500000F049FB257720680169C943C90617D4FF
:10196000C168C943C90613D46FF010010161082092
:1019700020772068C06910F4407F204602D0FFF72E
:1019800091FF04E000F0D6F8204600F02CFB25770C
:1019900020680169C943C90708D1C168C943C9079B
:1019A00004D1891E0161204600F078FB206801699E
:1019B000C943090609D4C168C943090605D46FF0B3
:1019C000800101612046FFF7CBFD20680169C94312
:1019D000490609D4C168C943490605D46FF04001DE
:1019E0000161204600F05BFB20680169C94389065C
:1019F0000BD4C168C943890607D46FF02001016187
:101A00002046BDE87040FFF7ACBD70BD10B586B094
:101A1000002100910191029103912A4C03682A4907
:101A200002222A48A34209D18B6943F004038B6147
:101A3000896901F004010491402128E0244CA3426B
:101A400019D1886940F0200088618869694600F0F2
:101A5000200004904FF44050CDE900021D4803924D
:101A6000FFF74EF91C48416841F0E06141F48051B4
:101A7000416006B010BD194CA34210D18B6943F0F0
:101A800004038B61896901F0040104910321CDE90C
:101A900000126946CDF80C20FFF732F9E9E710484B
:101AA0008342E6D1886940F0100088618869694600
:101AB00000F010000490C020CDE900020948039214
:101AC000EAE7000000040040001002400008014066
:101AD000000800400014014000000140000C0040DC
:101AE000003401400010014010B5044690F83C005D
:101AF00001280AD0012084F83C0042B1042A0AD00F
:101B0000082A0CD00C2A11D10DE0022010BD20684B
:101B100000F04AFF0AE0206800F076FF06E0206847
:101B200000F0A8FF02E0206800F0D8FF002084F851
:101B30003C0010BD2DE9F05F814601685F48DFF889
:101B400080A1604D4FF0030BAAF110064FF0000882
:101B50002C4681423ED1C4F81080DAF80020521C95
:101B6000CAF80020D10735D12B78574FF3B3384648
:101B7000564902683046012B006804D0022B1AD067
:101B8000032B27D10FE031F81030D36231F8101059
:101B9000F9603A6849085163401C3060322819D313
:101BA00085F800B016E06068401E6060012811DA18
:101BB000022028700EE0401E306031F81030D362F1
:101BC00031F81010F9603A684FEA5101516301D1C0
:101BD00085F800803E48D9F80010814250D1DAF8EB
:101BE0000410491CCAF80410C90700E001E011D034
:101BF00046E00022114600F0B7FE39686FF002009F
:101C000008610021304800F005F93968C1F82480E6
:101C10000120CEE76A782F4FD2B32F49012A04D092
:101C2000022A1CD0032A2BD111E070683B6831F8DE
:101C30001020DA6231F81010F9603A6849089163AF
:101C4000401C706032281BD385F801B018E0A068F2
:101C5000401EA060012813DA0220687010E070684E
:101C6000401E70603B6831F81020DA6231F81010C5
:101C7000F9603A684FEA5101916301D185F801801A
:101C80002069401C2061E068401CE060BDE8F09FD6
:101C9000FFE70022042100F067FE39686FF00400BE
:101CA00008610C48FFF780FD04210A4800F0B2F8F3
:101CB0003968C1F824800120CFE7000000340140DA
:101CC0007800002000000020B80300205001002010
:101CD000000C0040700300207C02002010B50400BE
:101CE00003D094F83D0010B107E0012010BD0020A2
:101CF00084F83C00204600F01EF8022084F83D00E5
:101D0000211D206800F0EAFD012084F8460084F8D7
:101D10003E0084F83F0084F8400084F8410084F8D5
:101D2000420084F8430084F8440084F8450084F8B5
:101D30003D00002010BD704710B50446022249B195
:101D4000042912D008291CD094F84100012823D07E
:101D5000012010BD94F83E000128F9D184F83E20FE
:101D60002068C26842F0020209E094F83F000128AE
:101D7000EED184F83F202068C26842F00402C260BD
:101D80000EE094F840000128E2D184F84020206859
:101D9000C26842F00802F2E784F841200C292AD0F8
:101DA0000122206800F0E0FD15492068154A8842AC
:101DB00001D0904203D1436C43F400434364206854
:101DC00088420DD090420BD0B0F1804F08D00E4920
:101DD000884205D00D49884202D00D49884204D17D
:101DE000816801F00701062903D0016841F0010173
:101DF0000160002010BD2068C26842F01002BEE7FA
:101E0000002C014000340140000400400008004064
:101E1000000C004030B5044600680D0006D0042DCB
:101E200008D0082D38D00C2D08D139E0C16821F038
:101E3000020102E0C16821F00401C16000222946CC
:101E4000206800F091FD1D4B41F2111120688A10AD
:101E5000984202D01A4B984209D1036A0B4206D12C
:101E6000036A134203D1436C23F4004343642068A4
:101E7000036A0B4206D1016A114203D1016821F0C5
:101E80000101016001207DB1042D10D0082D11D079
:101E900084F84100002030BDC16821F00801CCE782
:101EA000C16821F01001C8E784F83E00F2E784F829
:101EB0003F00EFE784F84000ECE70000002C014011
:101EC0000034014070B5044690F83C000D460128EE
:101ED0000AD0012084F83C0042B1042A18D0082A14
:101EE0002AD00C2A4DD139E0022070BD206800F0C4
:101EF0005BFD2068816941F008018161206881698A
:101F000021F004018161206881692A69114311E08F
:101F1000206800F079FD2068816941F400618161E9
:101F20002068816921F480618161206881692A6962
:101F300041EA0221816124E0206800F09BFD2068D5
:101F4000C16941F00801C1612068C16921F0040143
:101F5000C1612068C1692A69114311E0206800F05D
:101F6000BDFD2068C16941F40061C1612068C1699B
:101F700021F48061C1612068C1692A6941EA0221B6
:101F8000C161002084F83C0070BD10B5040003D08E
:101F900094F83D0010B107E0012010BD002084F846
:101FA0003C00204600F01EF8022084F83D00211D70
:101FB000206800F093FC012084F8460084F83E007D
:101FC00084F83F0084F8400084F8410084F842001F
:101FD00084F8430084F8440084F8450084F83D0008
:101FE000002010BD7047704710B50446022249B169
:101FF00004290ED0082913D094F84100012816D0E6
:10200000012010BD94F83E000128F9D184F83E204B
:102010000FE094F83F000128F2D184F83F2008E057
:1020200094F840000128EBD184F8402001E084F8C6
:1020300041200122206800F097FC13492068134AD0
:10204000884201D0904203D1436C43F4004343647F
:10205000206888420DD090420BD0B0F1804F08D05C
:102060000B49884205D00B49884202D00A49884270
:1020700004D1816801F00701062903D0016841F00D
:1020800001010160002010BD002C0140003401401E
:102090000004004000080040000C004070477047FA
:1020A0007047000070B5026804461068D168536933
:1020B00010F00F0F53D003F0010501F490762E437A
:1020C0005FD0C20705D0CA0503D5E26B42F001021A
:1020D000E263420705D5DA0703D0E26B42F0020261
:1020E000E263820705D5DA0703D0E26B42F004020F
:1020F000E263020707D501F020022A4303D0E26B16
:1021000042F00802E263E26B002A34D0800604D574
:10211000880602D5204600F042FD20684069E16B48
:10212000C0F3801001F008010143204624D000F0E4
:1021300028FD2068416949061AD5416921F040010E
:102140004161606BA0B12D494163606BFEF72EFDCC
:10215000002810D0606B416BBDE8704008478306D3
:102160000FD58B060DD52046BDE8704000F017BD99
:102170002046FFF795FF70BDFFF792FF0020E06358
:1021800070BD03062BD50B0629D594F839002128FC
:10219000F6D1A068B0F5805F01D12069B0B1206AA6
:1021A000411C2162216800784860E08C401E0004D8
:1021B000000CE084E4D12068C16821F08001C16096
:1021C0002068C16841F04001C16070BD206A00888C
:1021D000C0F308005060206A801C2062E5E74006DA
:1021E000F3D54806F1D5D168204621F04001D160F1
:1021F000202184F8391000F058F970BD732B0008C5
:1022000070B5040004D094F83900002510B106E040
:10221000012070BD84F83850204600F023F82420B7
:1022200084F839002068C16821F40051C16020465B
:1022300000F0FCFC2068016921F4904101612068F4
:10224000416921F02A0141612068C16841F40051CF
:10225000C160E563202084F8390084F83A0000204A
:1022600070BD000030B585B0002400940194029444
:1022700003940068184988422CD11848816941F4B8
:1022800080418161816901F480410491816941F05B
:10229000040181618069124D00F0040004904FF444
:1022A00000700090022001900320039069462846A8
:1022B000FEF726FD2815CDE900046946284602945C
:1022C000FEF71EFD002211462520FEF787FE252081
:1022D000FEF776FE05B030BD003801400010024028
:1022E0000008014090F83A30202B22D1F9B1F2B128
:1022F00090F83830012B1CD081628285C285002184
:10230000C163222280F83A2080F838100168CA6838
:1023100042F48072CA6001684A6942F001024A616F
:102320000068C16841F02001C160002070470120B1
:10233000704702207047000038B500681C49884289
:1023400034D11C4C05216068401C90FBF1F201FB6C
:1023500012006060012807D117A000F0FDFC0122E7
:10236000611C1A48FFF7BEFF6068022808D118A058
:1023700000F0F2FC0F490122891C1448FFF7B2FF5C
:102380006068032808D117A000F0E6FC0949012283
:10239000C91C0E48FFF7A6FF6068042806D1012279
:1023A00069460A48FFF79EFF0120A06038BD000083
:1023B0000038014044000020CAE4C8EBD7A5C8A1FA
:1023C000D7F8B1EA79310D0A0000000000040020BE
:1023D000CAE4C8EBB7C5D6C3D7F8B1EA78320D0A5C
:1023E00000000000CAE4C8EBB7C5D6C3D7F8B1EA0D
:1023F00079320D0A000000002DE9F843044690F8F8
:1024000039001F4616460D4620284CD1C5B1BEB135
:1024100094F83800012846D0012084F838004FF0A5
:102420000008C4F83C80212084F83900FEF76AFDDA
:10243000A6848146E684A068B0F5805F03D004E0FE
:102440000120BDE8F883206928B12E465FF0000521
:1024500084F838800EE00026FAE78021204600F05C
:1024600041FCA0B9AEB116F8010B21684860E08CC0
:10247000401EE084E08C4B464FF00002009700289D
:10248000EBD14FF04001204600F02CFC30B103208E
:10249000D7E735F8020BC0F30800E6E7202084F800
:1024A00039000020CDE70220CBE77047FEE70000AF
:1024B0002DE9F04186B00024204800940194029454
:1024C0000394816941F010018161816901F010017B
:1024D0000491816941F004018161816901F0040185
:1024E0000491816941F0200181618069144F00F0FD
:1024F00020000490002207213846FEF7FDFCDFF89B
:10250000448000221C214046FEF7F6FC07200125EE
:102510000226CDE90005CDE9024669463846FEF7B8
:10252000EFFB1C20CDE90005CDE902466946404697
:10253000FEF7E6FB06B0BDE8F081000000100240A7
:10254000001001400008014010B58EB0002407942F
:10255000089409940A940B941C2168460C94FDF786
:102560002CFE1E481C49016041F6BC31C0E9011433
:10257000C821C0E903148461FFF75CF808B1FEF7D5
:1025800014FB4FF48050079007A91448FFF71FF978
:1025900008B1FEF70AFB1148FFF7F7FC08B1FEF798
:1025A00004FB0B940BA90D480C94FFF705F808B138
:1025B000FEF7FBFA6020CDE9000402940022694690
:1025C00006480494FFF77EFC08B1FEF7EEFA0348D4
:1025D000FFF71CFA0EB010BD00040040E00200201E
:1025E00010B58EB000240794089409940A940B94B3
:1025F0001C2168460C94FDF7E0FD23482149016049
:102600000F21C0E901144FF6FF71C0E90314846182
:10261000FFF710F808B1FEF7C8FA4FF480500790A2
:1026200007A91948FFF7D3F808B1FEF7BEFA164814
:10263000FFF754FB08B1FEF7B8FA0B940BA9124848
:102640000C94FEF7B9FF08B1FEF7AFFA3020009006
:102650004FF42F70CDE90104002269460A48049422
:10266000FFF742FA08B1FEF7A0FA042269460648CD
:10267000FFF73AFA08B1FEF798FA0348FFF7C6F9F0
:102680000EB010BD000800402803002010B58EB029
:1026900000240794089409940A940B941C2168461A
:1026A0000C94FDF78AFD2448224901600F21C0E9FE
:1026B00001144FF6FF71C0E903148461FEF7BAFFFD
:1026C00008B1FEF772FA4FF48050079007A91A4834
:1026D000FFF77DF808B1FEF768FA1748FFF7FEFA32
:1026E00008B1FEF762FA0B940BA913480C94FEF79D
:1026F00063FF08B1FEF759FA3020CDE900040294D7
:10270000002269460C480494FFF7EEF908B1FEF781
:102710004CFA4FF416700190042269460648FFF700
:10272000E3F908B1FEF741FA0348FFF76FF90EB07D
:1027300010BD0000000C00407003002010B596B0E2
:1027400000240F9410941194129413941C21684641
:102750001494FDF732FD202107A8FDF72EFD2D482A
:102760002B4901600F21C0E901144FF6FF71C0E948
:10277000031444618461FEF75DFF08B1FEF715FAAA
:102780004FF480500F900FA92248FFF720F808B1AE
:10279000FEF70BFA1F48FFF7A1FA08B1FEF705FA9A
:1027A000139413A91B481494FEF706FF08B1FEF713
:1027B000FCF9302000904FF41670CDE90104039429
:1027C000049405940022694612480694FFF78CF998
:1027D00008B1FEF7EAF9042269460E48FFF784F9CA
:1027E00008B1FEF7E2F90794089409944FF40050F9
:1027F0000A94CDE90B4007A906480E94FEF7B2FEF5
:1028000008B1FEF7D2F90348FFF700F916B010BD82
:1028100000340140B80300200C4810B50A4901609B
:102820004FF4E1314160002181600C22C160C0E9B8
:1028300004128161C161FFF7E3FC002803D0BDE809
:102840001040FEF7B2B910BD00380140000400206E
:10285000FEE7704770477047FEF75ABB30B58FB040
:1028600028216846FDF7A9FC14210AA8FDF7A5FC5C
:1028700001210804CDE900100024029402250491EE
:10288000CDE907504FF4E01009906846FEF7C4FC0C
:102890000F20CDE90A056802CDE90C4002210AA803
:1028A0000E94FEF7CDFB0FB030BD70470148FEF728
:1028B000FABF0000E00200200148FEF7F4BF00006C
:1028C000280300200148FEF7EEBF0000700300203F
:1028D0000148FEF7E8BF0000B8030020F0B5026829
:1028E0001C4B1D4D1D4E1E4F1E4C4FF0804C9842F0
:1028F00009D0A04207D0604505D0A84203D0B0421D
:1029000001D0B84204D122F0700E4A6842EA0E02A9
:10291000984209D0A04207D0604505D0A84203D014
:10292000B04201D0B84203D122F44075CA682A43AC
:102930004D6922F080022A4302608A68C2620A68F6
:102940008262984201D0A04201D10969016301214C
:102950004161F0BD002C014000040040000800402F
:10296000000C00400034014010B501F01F030121AC
:10297000046A99408C430462016A9A4011430162DF
:1029800010BD10B5846842EA032224F47F440A4350
:102990002243826010BD826822F070020A4342F036
:1029A0000701816070470000F0B5026A22F0010261
:1029B0000262036A42688469124E24F073050C684F
:1029C0002C4323F002058B682B430D4DA84201D008
:1029D000B04205D123F00807CB683B4323F0040342
:1029E000A84201D0B04205D14D6922F4407215438E
:1029F0008A692A4342608461496841630362F0BD89
:102A0000002C014000340140F0B5026A22F01002AF
:102A10000262026A436884690D6824F4E64444EA69
:102A200005248D6822F0200242EA05120F4D104E57
:102A3000A84201D0B04206D1CF6822F0800242EA1B
:102A4000071222F04002A84201D0B04207D14D69DE
:102A500023F4406343EA85038D6943EA85034360B9
:102A60008461496881630262F0BD0000002C01406E
:102A700000340140F0B5026A22F480720262026AF8
:102A80004368C46922F4007224F073050C68124E86
:102A90002C438D6842EA05220E4DA84201D0B04277
:102AA00006D1CF6822F4006242EA072222F4806253
:102AB000A84201D0B04207D14D6923F4405343EA04
:102AC00005138D6943EA05134360C4614968C16316
:102AD0000262F0BD002C01400034014030B5026AB2
:102AE00022F480520262046A4268C3690D6823F4CA
:102AF000E64343EA05238D6824F4005444EA053490
:102B0000084DA84202D0084DA84204D14D6922F4D4
:102B1000804242EA85124260C361496801640462EE
:102B200030BD0000002C01400034014010B5036AA4
:102B3000046A24F001040462846924F0F00444EA85
:102B4000021423F00A020A438461026210BD10B528
:102B5000036A23F0100303628369046A23F4704359
:102B600043EA023224F0A00343EA011182610162C8
:102B700010BD10B5406A0021C185C184FFF790FAED
:102B800010BD0168CA6822F49072CA6001684A697F
:102B900022F001024A61202180F83A10704710B5F6
:102BA00090F83A10222901D0022010BD82684FF41B
:102BB00080539A4201D1016921B1816A9A421BD0A6
:102BC0004AB10AE00268816A5268C2F308020A80C8
:102BD000816A891C08E0026972B10268526802F0D9
:102BE0007F020A70816A491C8162C18D491E0904F5
:102BF000090CC18503D016E002685268F1E701684C
:102C0000CA6822F02002CA600168CA6822F4807291
:102C1000CA6001684A6922F001024A61202180F8F5
:102C20003A10FFF789FB002010BD000070B5044684
:102C300000680169E26821F4405111430161216992
:102C4000A0680843616908432168CA6841F20C63BF
:102C50009A430243CA6020684169A26921F4407125
:102C6000114341611E492068884202D1FEF78EFA65
:102C700001E0FEF77BFA00EBC00101EB0012606897
:102C800064218000B2FBF0F3B3FBF1F36FF01806A0
:102C90007343B2FBF0F5B2FBF0F605EB830532238C
:102CA00003EB0515B5FBF1F5B6FBF1F605F0F00504
:102CB00005EB0615B2FBF0F6B2FBF0F0B0FBF1F05D
:102CC0006FF01802504306EB800003EB0010B0FBDE
:102CD000F1F0216800F00F002844886070BD00000A
:102CE000003801402DE9F041984617460E4604464B
:102CF000069D1DE0681C1BD02DB1FEF703F9A0EB6B
:102D00000800A84214D92068C16821F4D071C160BC
:102D10002068416921F001014161202084F83900D7
:102D200084F83A00002084F838000320BDE8F081E0
:102D30002068006836EA000004D00020B842D9D0EC
:102D40000020F3E70120F9E70148FFF7ABB90000E5
:102D500000040020FEE700000FB4054B10B503A9E6
:102D6000044A029800F0C2F810BC5DF814FB0000A1
:102D70005D34000860000020490050EAC12018BFFF
:102D800004204A0D18BF40F0010040F2FF72B2EB80
:102D9000515F08BF40F00200012808BF05207047BE
:102DA0004100080218BF04200A0E18BF40F00100BD
:102DB0004FF07F4232EA010108BF40F002000128D3
:102DC00008BF052070470907090E002804DB00F141
:102DD000E02080F80014704700F00F0000F1E020C0
:102DE00080F8141D70472DE9F0414F1E00EBC7011C
:102DF0000446D1E9000115461E4637F006020DD003
:102E00002A463346FDF75FFB7F1E04EBC703D3E979
:102E10000023FDF7B1FA37F00602F1D1022F25D0D9
:102E2000042F13D0062F18BFBDE8F0812A46334681
:102E3000FDF749FBD4E90A23FDF79EFA2A463346FB
:102E4000FDF741FBD4E90823FDF796FA2A463346FD
:102E5000FDF739FBD4E90623FDF78EFA2A463346FF
:102E6000FDF731FBD4E90423FDF786FA2A46334601
:102E7000FDF729FBD4E90223FDF77EFA2A46334603
:102E8000FDF721FBD4E90023BDE8F041FDF774BA5A
:102E90000122FDF796BD0000024A00201107FDF750
:102EA00090BD000001FDFFFF0121FDF759BA61212E
:102EB0004FF0E040FDF754BA6FF05E010807FDF7F0
:102EC0004FBA02E008C8121F08C1002AFAD17047A1
:102ED0007047002001E001C1121F002AFBD170479A
:102EE0000149086070470000640000202DE9FF4F91
:102EF00089B09B460446002506E025280BD05A469B
:102F00000B999047641C6D1C20780028F5D10DB0FA
:102F10002846BDE8F08F0027B8460122474900E067
:102F2000074314F8013F203B02FA03F00842F7D1AF
:102F300020782E2819D114F8010F47F004072A2809
:102F40000ED06FF02F022078A0F1300109290CD8A3
:102F500008EB880102EB410100EB0108641CF2E779
:102F60000A98641C50F8048B0A9020780028CED070
:102F7000642808D0692806D075281ED05A460B99B7
:102F800090476D1C58E00A994FF00A0901C90A914F
:102F9000002802DA40422D2102E0390504D52B2118
:102FA0008DF82010012103E0F90704D02021F7E774
:102FB0008A4608AE0DE00021FAE70A994FF00A09A7
:102FC00001C90A91F7E74946FDF712FC303106F8CE
:102FD000011D0028F7D1ADEB060000F120097807AC
:102FE00001D44FF00108C84502DDA8EB090000E05C
:102FF00000208046002706E008A85A46C05D0B99CD
:1030000090476D1C7F1C5745F6DB04E030205A4684
:103010000B9990476D1CB8F10001A8F10108F5DC8F
:1030200005E016F8010B5A460B9990476D1CB9F153
:103030000001A9F10109F4DC641C65E7092801001D
:1030400070B50C464FF400030146984207DB20465A
:10305000FDF748F9FDF759FB00F038F81CE0164A77
:1030600091421DD3154D164E944220460AD2FDF7CB
:1030700039F9FDF74AFB00F029F82A463346FDF7F7
:103080007BF909E0FDF72EF9FDF73FFB00F01EF894
:103090002A463346FDF711FABDE87040FDF778BBCC
:1030A00010F0FF4F02D19C4201DB064870BD9442F4
:1030B000FCD3054870BD0000000080806F1283C003
:1030C000CA210940560EC93F560EC9BF2DE9F84F17
:1030D00004460D4621F0004000917349814211DC05
:1030E0007249884201DC06D12CB120462946BDE850
:1030F000F84FFFF7CDBE6E48002DCCBF6D496E492D
:10310000BDE8F88F6D49814211DD6D498142D8BF1C
:103110004FF0FF366DDD20462946FFF72DFE0428CF
:1031200008BFFFF7B9FE20462946BDE8F88F65497C
:10313000654F25F00045814233DD6449814219DD48
:10314000002632464FF0804320462946FDF714F909
:1031500080468A46012220462946FDF732FC00229D
:103160003B46FDF7AAF942465346FDF71EFA0446D0
:103170000D463EE001260022BA463B46204629463F
:10318000FDF7FAF880460F460022534620462946AE
:10319000FDF793F942463B46FDF707FA04460D4614
:1031A00027E04B4981421BDDDFF828A102260022DF
:1031B000534620462946FDF786F900223B46FDF797
:1031C000DBF880460F460022534620462946FDF78D
:1031D00074F942463B46FDF7E8F904460D4608E01F
:1031E000032622462B4600203B49FDF7DEF9044624
:1031F0000D4622462B4610461946FDF764F98B46CC
:10320000824602460B46FDF75EF907460246334802
:1032100088460B4606217844FFF7E5FD52465B469B
:10322000FDF751F982462E488B463A464346052122
:103230007844FFF7D8FD3A464346FDF744F9024685
:103240000B46002E504659460CDAFDF795F82246FB
:103250002B46FDF738F901B022462B46BDE8F04F6A
:10326000FDF72EB9FDF788F822462B46FDF72BF91E
:103270001C4A7A4402EBC603D3E90023FDF71DF98B
:1032800022462B46FDF719F9174A7A4402EBC6038A
:10329000D3E90023FDF714F9009A002AB8BF81F0A2
:1032A0000041BDE8F88F0000000010440000F07FEE
:1032B000182D4454FB21F93FFB21F9BF0000DC3FEE
:1032C0000000203E0000F33F0000F03F0000E63F1A
:1032D000008003400000F83F0000F0BFE609000056
:1032E000A4090000420900000A0900002DE9F0418C
:1032F00004464FF019404E49002500EB4400884237
:103300004AD84C492046FCF7BBFFFDF7DFFA804660
:10331000FDF7BFFB064648494046FCF7B1FF0746AC
:1033200046494046FCF7ACFF2146FCF7A6FF39466C
:10333000FCF7A0FF04464249FCF7A2FF4149FCF715
:1033400047FF2146FCF79CFF6FF04141FCF740FF2F
:103350002146FCF795FF3C49FCF73AFF2146FCF774
:103360008FFF0146394806F00304784450F82400E2
:10337000FCF786FF3649794451F82410FCF728FF02
:103380003449794451F82410FCF722FFB11085BB71
:10339000BDE8F041FCF7E4BF4FF0FF4131EA040023
:1033A00018D04FF0CE41B1EB440F84BF4FF07E50A8
:1033B000BDE8F0812849B1EB440F28BF0125A0D218
:1033C0000220FFF78DFD14F0004F0ED0BDE8F04154
:1033D000FFF772BD204614F5000F04BF0020BDE8C2
:1033E000F081BDE8F041FFF75FBDBDE8F041FFF7B8
:1033F0005EBDFCF7B5FF04000BD0B4F1FF4F0FD05A
:10340000FFF7CEFC042808BFFFF756FD2046BDE8B5
:10341000F0810220FFF764FDBDE8F041FFF74CBDED
:103420000220FFF75DFDBDE8F041FFF740BD000061
:103430000000501E3BAAB840F4FD05370070313E35
:1034400012BB2A3D12BB2A3EFFFF7F3FE20800006D
:10345000C6080000AA0800000000A08538B5044690
:103460008DF800000223012269460248FEF7C4FFDE
:10347000204638BD00040020A2B0FDF751FDFFF743
:10348000EDF9FFF715F8FFF7ABF8FFF7FFF8FFF7D7
:1034900055F9FFF759F8FFF7BFF9B1A0FFF75CFC4A
:1034A0000122B449B448FEF71DFF4FF47A7A504622
:1034B000FDF714FCAF4DDFF8C482DFF8C49200269C
:1034C0004FF4FA7BA8680128FCD12978ADA0FFF75A
:1034D00043FC6978AEA0FFF73FFCA978AFA0FFF7E7
:1034E0003BFCE978B0A0FFF737FC57465046FDF7A4
:1034F000F5FB3D22AF4910A8FCF746FEAD4C14F891
:103500003D0F8DF87D0060788DF87E00A0788DF8F5
:103510007F00E0788DF8800020798DF88100607957
:103520008DF88200A0798DF88300E0798DF8840011
:10353000207A8DF88500607A8DF886000A20CDE922
:103540000E60382214A96846FCF71EFE0DF1400CEF
:103550009CE80F0000F0FAFA3846FDF7BFFB0022A6
:1035600004219548FDF7C8FC6878FDF796F80746F2
:103570002878FDF792F8394600F02EF98F494FF080
:10358000814743464A46A1F1C800CDE90067FDF7EF
:10359000ADFA8B4943464A46A1F1C800CDE9006720
:1035A000FDF7A4FA8748FEF7CDF88748FEF7CAF87A
:1035B00000218448FEF7C0FB04218348FEF7BCFBD2
:1035C00040F6B830FDF78AFB3D227A4910A8FCF797
:1035D000DBFD20788DF87D0060788DF87E00A07886
:1035E0008DF87F00E0788DF8800020798DF88100DB
:1035F00060798DF88200A0798DF88300E0798DF8EC
:103600008400207A8DF88500607A8DF88600192074
:10361000CDE90E60382214A968463D3CFCF7B4FDA4
:103620000DF1400C9CE80F0000F090FA5846FDF7B1
:1036300055FB6648006801282CD1E878FDF72DF885
:103640000090A878FDF729F8009900F0C5F85B49CB
:1036500043464A46A1F1C800CDE90067FDF746FAA6
:10366000574943464A46A1F1C800CDE90067FDF736
:103670003DFA5448FEF766F85348FEF763F8002118
:103680005048FEF759FB04214F48FEF755FB5046C2
:10369000FDF724FB4FF44870FDF720FB3D22454920
:1036A00010A8FCF771FD14F83D0F8DF87D006078CF
:1036B0008DF87E00A0788DF87F00E0788DF880008E
:1036C00020798DF8810060798DF88200A0798DF8DD
:1036D0008300E0798DF88400207A8DF88500607A87
:1036E0008DF886000F20CDE90E60382214A96846B7
:1036F000FCF74AFD0DF1400C9CE80F0000F026FAA3
:103700005846FDF7EBFA3249324800F065F82B498C
:1037100043464C464A46A1F1C800CDE90067FDF793
:10372000E5F9274943462246A1F1C800CDE90067E3
:10373000FDF7DCF92348FEF705F8012204211E48B5
:10374000FDF7DAFB00211F48FEF7F6FA5446504613
:10375000FDF7C4FA2046FDF7C1FAAE60B2E60000FC
:10376000CAE4C8EBD7A5C8A1D7F8B1EA78310D0AE9
:1037700000000000440000200004002000803B45C1
:10378000000048427831CEAA25640D0A00000000EE
:103790007931CEAA25640D0A000000007832CEAA45
:1037A00025640D0A000000007932CEAA25640D0AB6
:1037B00000000000E002002000080140500100204D
:1037C0007C020020B80300207003002010000020BD
:1037D000000020410000F0412DE9F05F884CDFF847
:1037E0001CB2884DA368E361E368874E236200F052
:1037F00019F9E169A068FCF7F1FFE169A06823D23B
:10380000FCF738FD606220F00040FCF77EFF0022EC
:103810005B46FCF758FE2A463346FCF7C6FE0022FC
:103820007A4BFCF7C2FE0022794BFCF74CFE0022DB
:10383000784BFCF748FE0022774BFCF7B6FEFCF70E
:1038400045FF0022606127E0FCF7BEFF28D2E16956
:10385000A068FCF70FFD606220F00040FCF755FF08
:1038600000225B46FCF72FFE2A463346FCF79DFEFE
:103870000022664BFCF799FE0022654BFCF723FE05
:103880000022644BFCF71FFE0022634BFCF78DFE09
:10389000FCF71CFF0122606108216048FDF72CFB4A
:1038A0002169606AFCF794FC5D49E062884200DAB5
:1038B000E162E068FCF729FF2A46B0463346FCF790
:1038C000FFFD06460F46E06AFCF71FFF32463B4607
:1038D000FCF746FF3CD2E06AFCF717FF06460F46AE
:1038E000E068FCF712FFA9462A464346FCF7E8FDCC
:1038F0008A46054632463B46FCF7DFFDFCF748FFAB
:103900000646A06228465146FCF742FF206126F099
:103910000040FCF7FAFE00225B46FCF7D4FD4A4665
:103920004346FCF742FE0022384BFCF73EFE0022E5
:10393000374BFCF7C8FD0022364BFCF7C4FD0022D4
:10394000354BFCF732FEFCF7C1FE0122A0614CE0D2
:10395000E068FCF7DAFE2A464346FCF7B1FD06466E
:103960000F46E06AFCF7D1FE32463B46FCF7E0FE2C
:1039700041D2E06AFCF7C9FE06460F46E068FCF754
:10398000C4FEA9462A464346FCF79AFD8A460546E8
:1039900032463B46FCF791FDFCF7FAFE0646A06274
:1039A00028465146FCF7F4FE206126F00040FCF763
:1039B000ACFE00225B46FCF786FD4A464346FCF718
:1039C000F4FD0022114BFCF7F0FD0022104BFCF738
:1039D0007AFD00220F4BFCF776FD00220E4BFCF720
:1039E000E4FDFCF773FE0022A061BDE8F05F10214A
:1039F0000A48FDF781BABDE8F09F000000806640EC
:103A0000140000206F1283C0CA2109400080764054
:103A10000000994000004F40000034400008014081
:103A20008F09063F2DE9F05F83468A460846FCF77A
:103A300027FC044659460846FCF722FC2146FCF7C1
:103A4000C7FB8146FCF761FE00F05AF8FCF7A0FEC8
:103A50002A4C0746012120688046FCF781FC6168FA
:103A60000E46FCF70DFC054631460846FCF708FCFF
:103A7000064641460846FCF703FC01464846FCF76B
:103A8000F9FB3146FCF7F6FB2946FCF72BFC064612
:103A90000146FCF7F5FB4FF07E51FCF7EEFBFCF71F
:103AA00034FE00F02DF8FCF773FE05460146304663
:103AB000FFF7C6FAE06051465846FFF7C1FA804664
:103AC000606829468146FCF7DBFB3946FCF70AFCB7
:103AD000054631464846FCF7D3FB2168FCF778FBE6
:103AE0003946FCF7FFFB2946FFF7AAFA0146404694
:103AF000FCF7C0FBA060BDE8F09F000014000020B0
:103B00002DE9F04106460F46FCF772FF041E0D46F4
:103B100018BF0120284320F00040C0F17F6000F171
:103B2000E040C00F0ED0301C18BF0120384320F0F9
:103B30000040C0F17F6000F1E040C00F04BF0120F1
:103B4000FFF7CEF920462946BDE8F0810FB470B5E5
:103B500004A8DDE916542946FEF746FA45B1042DBE
:103B600009D00498082D09D0046470BC5DF814FBDA
:103B700004984463F9E704988463F6E7C463F4E7C0
:103B8000000000000000000001020304060708090D
:103B900000000000010203044FBB610567ACDD3F7C
:103BA000182D4454FB21E93F9BF681D20B73EF3F64
:103BB000182D4454FB21F93FE2652F227F2B7A3CDC
:103BC000075C143326A6813CBDCBF07A8807703C95
:103BD000075C143326A6913CC4EB98999999C9BF08
:103BE000711623FEC671BCBF6D9A74AFF2B0B3BF3D
:103BF0009AFDDE522DDEADBF2F6C6A2C44B4A2BFFD
:103C00000D5555555555D53FFF8300922449C23F68
:103C10006E204CC5CD45B73F513DD0A0660DB13F9C
:103C2000EB0D76244B7BA93F11DA22E33AAD903FAE
:103C30000000803F0030983F0000B53F0040D73F74
:103C400000000000320A7E397F661E395B991F39F9
:103C50000000803FF037983FF304B53FFD44D73F65
:103C6000803C00080000002068000000C22E000810
:103C7000E83C000868000020D8070000D22E0008A9
:103C80000101010100000000000000000000000030
:103C9000000000000000C8420000C8428F0986BF33
:103CA000CA7A27408F09063F00000000000000008C
:103CB0000000000000000000000000000000000004
:103CC00000000000000000000000000000000000F4
:103CD0000100000010000000000000000024F400BB
:083CE0000000000000000000DC
:0400000508000131BD
:00000001FF
