:020000040800F2
:100000001009002045010008531D00086919000867
:10001000511D00088504000897200008000000001A
:10002000000000000000000000000000571D000854
:100030004905000800000000551D0008591D000872
:100040005F0100085F0100085F0100085F01000810
:100050005F0100085F0100085F0100085F01000800
:100060005F0100085F0100085F0100085F010008F0
:100070005F0100085F0100085F0100085F010008E0
:100080005F0100085F0100085F0100085F010008D0
:100090005F0100085F0100085F0100085F010008C0
:1000A000AD1D0008D11D0008C51D0008B91D0008C0
:1000B000DD1D0008E91D0008F51D00085F010008AE
:1000C0005F0100085F0100085F0100085F01000890
:1000D0005F0100085F0100085F0100085F01000880
:1000E0005F0100085F0100085F0100085F01000870
:1000F0005F0100085F0100085F0100085F01000860
:100100005F0100085F0100085F0100085F0100084F
:100110005F0100085F0100085F0100085F0100083F
:100120005F0100085F0100085F0100085F0100082F
:10013000DFF80CD000F094F9004800479522000841
:10014000100900200648804706480047FEE7FEE702
:10015000FEE7FEE7FEE7FEE7FEE7FEE7FEE7FEE777
:10016000AB1D000831010008D2B201E000F8012BFC
:10017000491EFBD270470022F6E710B513460A4627
:1001800004461946FFF7F0FF204610BDF0B480EAA0
:100190000102D40F4200B2EB410F02D202460846E0
:1001A00011464A0042D0C30DDDB2C1F3C752AD1AA9
:1001B000202D35DAC1F3160141F4000204B1524298
:1001C000C5F1200602FA06F12A411044B3EBD05FD4
:1001D00023D0C4B1012DA0EBC35009DCF0BC4FF01B
:1001E000004202EAC352DBB200F5000000F0D3B8CF
:1001F000400000F1807000EBC350A0F1807040EA35
:10020000D170490009E0490841EAC071A0EBC35030
:1002100000F50000400800EBC350F0BC00F0B2B89D
:100220006142012202EB4101001BF6E7F0BC70477E
:1002300081F00041AAE780F00040A7E780EA0102D0
:1002400010B502F00043400022D04A001FD0010E3A
:1002500001EB1261C0F35600C2F3560240F40000F5
:1002600042F40002A0FB022000047F39140400D0F5
:10027000401C50EA124001D44000491EC2B20C0694
:1002800004EBD010401C4008802A02D003E000207C
:1002900010BD20F00100002900DA0020184310BD35
:1002A00030B480EA010202F0004530F0004221F053
:1002B000004013D090B1C30DD40DC2F31601C0F3AA
:1002C0001600E41A41F4000140F400027D3491422A
:1002D00001D3641C00E04900002C02DA30BC00208D
:1002E00070474FF400000023914201D3891A034361
:1002F00040084FEA4101F7D151B1914202D14FF08C
:10030000004105E002D24FF0010101E06FF0010170
:1003100003EBC450284430BC00F034B8420005D090
:10032000C0F3C7525242914201DC0020704700EBFB
:10033000C1507047C10F80EAE0700844CA07962395
:10034000002100F028B820F00040C10DC0F31600D5
:1003500040F400007F2901DA00207047962903DC71
:10036000C1F19601C8407047963988407047000037
:10037000002801DBC0F10040002901DBC1F1004190
:10038000814270470029A8BF7047401C490008BF40
:1003900020F00100704710B4B0FA80FC00FA0CF0B5
:1003A00050EA010404BF10BC704749B1CCF12004ED
:1003B00021FA04F411FA0CF118BF0121214308437A
:1003C000A3EB0C01CB1D4FEA00614FEA102042BFA6
:1003D000002010BC704700EBC35010440029A4BF9C
:1003E00010BC7047401C490008BF20F0010010BC41
:1003F000704710B541000CD0C0F3C751962908DCF6
:100400007E2909DC06DB410204D000F0004040F008
:100410007E5010BD002010BDC1F19604C4F1200132
:1004200000FA01F1E040FFF7ADFFA04010BD00F081
:10043000004220F00040C10DC0F3160040F400005F
:100440007F2901DA00207047962903DCC1F196016B
:10045000C84001E096398840002AF4D040427047F5
:10046000064C074D06E0E06840F0010394E8070001
:1004700098471034AC42F6D3FFF75EFE3C240008E8
:100480005C240008FEE700002DE9F05F884629495A
:1004900081464FF47A70DDF82CB008602649924608
:1004A0000024086025484FF461714160816018465E
:1004B0000A99FFF7BDFE074631E000BF4FF0FF315C
:1004C0005046FFF72BFF054629463046FFF7B0FEA2
:1004D0005946FFF7B3FE2946FFF7E2FE80F00040E1
:1004E00001F020FE4FF07E552946FFF74FFE0146F2
:1004F0002846FFF7D5FE01463846FFF79FFE0A99CA
:10050000FFF744FE49F824000D4850F824100D4828
:10051000FFF7C6FEFFF717FF28F81400641C2046FB
:10052000FFF708FF06465146FFF722FFC6D3BDE896
:10053000F09F0000380000203C0000200000002058
:10054000880000204054894A7047704770B50446BF
:1005500000F010F90546601C02D0044800780444FD
:1005600000F008F9401BA042FAD370BD54000020EF
:100570002DE9F84FDFF8C891002409F1040A0AF1C7
:10058000040B23460F270BF1040ED1E00125A540F3
:1005900006EA0502AA4276D1DFF8A8C14E68A6EBAA
:1005A0000C0866452BD00DDC032E34D005DC36B3A9
:1005B000012E19D0022E2FD11BE0112E16D0122E93
:1005C0002AD119E0B8F5881F19D006DCB8F5803FAC
:1005D00015D0B8F5801F1FD111E0B8F5001F0ED05F
:1005E000B8F5041F18D10AE0CB6815E0CB681B1DD5
:1005F00012E0CB6808330FE0CB680C330CE08B685B
:100600002BB1012B4FF0080303D0456104E0042314
:1006100002E0056100E00023FF2A01D8064601E060
:1006200000F104064FEA840501D9A5F12005D6F8AA
:10063000008007FA05FC28EA0C0803FA05F548EAE9
:100640000508C6F800804D68ED0070D53E4DAE69D6
:1006500046F00106AE61AD6924F0030605F0010520
:1006600000953A4D06EB050CDCF80850A607360F4E
:1006700007FA06F825EA0805DFF8D480404503D1DB
:100680004FF0000825E052E0DFF8C880404502D175
:100690004FF001081DE0DFF8C080404502D14FF067
:1006A000020816E0DFF8B480404502D14FF003089D
:1006B0000FE0DFF8AC80404502D14FF0040808E0BD
:1006C000DFF8A080404502D14FF0050801E04FF06F
:1006D000060808FA06F848EA0508CCF808804D68CC
:1006E000D9F80060ED034D4601D5164300E096436E
:1006F0002E604D68DAF80060AD03554601D516430B
:1007000000E096432E604D68DBF80060ED025D4628
:1007100001D5164300E096432E604D68DEF8006078
:10072000AD02754601D5164300E096432E60641C69
:100730000A681646E2407FF429AFBDE8F88F000052
:1007400000040140000011100010024000000140B0
:1007500000080140000C014000100140001401405D
:1007600000180140001C01400AB1016170470904F2
:10077000FBE700000148806870470000540000203B
:10078000024881680278114481607047540000205B
:10079000074810B5016841F010010160032000F026
:1007A00075F8002000F006F800F024F8002010BDD5
:1007B0000020024070B50D4D04464FF47A71287840
:1007C000B1FBF0F00A490968B1FBF0F000F0CCFA97
:1007D00048B9102C07D200222146501E00F036F8EE
:1007E00000206C6070BD012070BD0000540000202E
:1007F000600000200C4808B5816941F00101816169
:10080000816901F001010091C16941F08051C1612C
:10081000C06900F0805000900448416821F0E06118
:1008200041F00071416008BD00100240000001402D
:10083000002809DB00F01F020121914040098000DF
:1008400000F1E020C0F8001170470000F0B40E4B3A
:100850001B680C46C3F30223C3F10705042D00D91E
:100860000425191D072901D2002300E0DB1E012603
:1008700006FA05F1491E214099409E40761E164019
:100880003143F0BC01F01BBC0CED00E0064900F068
:10089000070208684FF6FF03184040EA0220034AA7
:1008A00010430860704700000CED00E00000FA05FE
:1008B0002DE9F0470F46050061D0434E306800F047
:1008C0000700B84209D2306820F007003843306092
:1008D000306800F00700B84251D128683B4C8107CE
:1008E00012D5400703D5606840F4E0606060287866
:1008F000000703D5606840F4605060606068A968D4
:1009000020F0F000084360602878C00728D06868AD
:10091000012810D02168022810D0890700292EDA7A
:10092000616821F0030101436160FFF723FF804606
:1009300041F288390DE021688903EFE78901EDE78D
:10094000FFF718FFA0EB0801494502D90320BDE8D5
:10095000F0876068696800F00C00B0EB810FEFD1A0
:10096000306800F00700B8420BD9306820F007006B
:1009700038433060306800F00700B84201D00120F1
:10098000E5E72878400705D56068E96820F4E0606D
:10099000084360602878000706D56068296920F45C
:1009A000605040EAC100606000F018F86168084AD1
:1009B000C1F30311515CC84006490860064800684D
:1009C000FFF7F8FE0020C2E70020024000100240BE
:1009D000FC230008600000205800002012A185B010
:1009E0000FC98DE80F0014A0144A006804905168E4
:1009F000134801F00C03042B10D0082B0ED1C1F3C7
:100A00008343C9031DF803000AD5516804AAC1F342
:100A10004041515C0A4A5043B0FBF1F005B07047C9
:100A200008494843FAE700000203040506070809DD
:100A30000A0B0C0D0E0F10100102000000100240F6
:100A400000127A0000093D002DE9F84F040070D033
:100A50002078C04DC00749D06868C0F381000128E4
:100A600007D06868C0F38100022809D16868C00314
:100A700006D52868800339D560680028E7D035E0BE
:100A80006068B0F5803F0BD010B1B0F5A02F11D049
:100A9000286820F480302860286820F4802002E054
:100AA000286840F480302860606890B1FFF762FEEB
:100AB00006460AE0286840F480202860F0E700BF7E
:100AC000FFF758FE801B642873D828688003F7D589
:100AD0000CE0FFF74FFE064605E000BFFFF74AFEB9
:100AE000801B6428F0D828688003F7D420789A4EB9
:100AF00080074FF001094FF0000839D5686810F001
:100B00000C0F07D06868C0F38100022809D168681B
:100B1000C00306D42868800714D52069012808D1AD
:100B200010E02069B0B1C6F80090FFF723FE074639
:100B300005E00AE1FFF71EFEC01B0228C4D82868A2
:100B40008007F7D52868616920F0F80040EAC10005
:100B500028600DE0C6F80080FFF70CFE074604E0B1
:100B6000FFF708FEC01B022823D828688007F7D4A7
:100B7000207800072CD57948A169D9B1C0F8009038
:100B8000FFF7F8FD074604E0FFF7F4FDC01B02285D
:100B90000FD8686A8007F7D571484FF4FA5100689A
:100BA000B0FBF1F0009000BF0098411E0091FAD216
:100BB0000EE080E0C0F80080FFF7DCFD074604E0AF
:100BC000FFF7D8FDC01B022875D8686A8007F7D4E4
:100BD0002078400760D5E8690027C00008D4E8699C
:100BE00040F08050E861E869012700F080500090F3
:100BF0005C480168C90513D40168834641F48071DB
:100C00000160FFF7B7FD824606E000BFFFF7B2FDC7
:100C1000A0EB0A0064284ED8DBF80000C005F5D52B
:100C2000E06801280AD008B1052813D0286A20F00E
:100C300001002862286A20F0040002E0286A40F0DF
:100C400001002862E06841F2883B98B1FFF792FD0D
:100C500082460BE0286A40F004002862EEE700BFFD
:100C6000FFF788FDA0EB0A0159455AD8286A80078A
:100C7000F6D50CE0FFF77EFD824605E0FFF77AFD32
:100C8000A0EB0A0159454CD8286A8007F6D41FB159
:100C9000E86920F08050E861E06988B36968C1F3D1
:100CA0008101022944D00228C6F8608004D0FFF7F1
:100CB00061FD044638E034E0FFF75CFD074604E0E0
:100CC000FFF758FDC01B02282BD828688001F7D4F5
:100CD000206AB0F5803F05D16868A16820F4003033
:100CE00008436860D4E908010843696821F4741175
:100CF00008436860C6F86090FFF73CFD044606E0D4
:100D000025E000BFFFF736FD001B022809D8286840
:100D10008001F7D51BE000BFFFF72CFD001B022868
:100D200002D90320BDE8F88F28688001F4D40EE0D2
:100D30000128F7D06868226A00F48031914204D11A
:100D4000616A00F47010884201D00120EAE70020B7
:100D5000E8E70000001002400000424280044242E6
:100D6000600000200070004010B5401EB0F1807F90
:100D700001D3012010BD4FF0E02460610F21601706
:100D800001F09DF90020A06107202061002010BD26
:100D90007047704710B590F83C20012A22D00122FC
:100DA00080F83C20CA688C6822F4407222434C6868
:100DB00022F4806222430C6822F4006222430C6910
:100DC00022F4805222434C6922F400522243C96922
:100DD000002322F480420A4301684A6480F83C30D0
:100DE000002010BD022010BD70B590F83C20012AF3
:100DF0002CD0012480F83C40022280F83D2003687A
:100E00005A689D6822F070060A6832435A60104B97
:100E100002689A420ED00F4B9A420BD0B2F1804F2B
:100E200008D00D4B9A4205D00C4B9A4202D00C4B85
:100E30009A4204D1496825F080031943916080F8F3
:100E40003D40002180F83C10084670BD022070BD76
:100E5000002C014000340140000400400008004024
:100E6000000C004010B5040003D094F83D0010B110
:100E700007E0012010BD002084F83C00204600F06F
:100E80001FF8022084F83D00211D206800F0B8FF03
:100E9000012084F8460084F83E0084F83F0084F87E
:100EA000400084F8410084F8420084F8430084F84C
:100EB000440084F8450084F83D00002010BD000087
:100EC00008B5384A01683848914226D1816941F411
:100ED000006181618069002200F400600090114689
:100EE0001820FFF7B3FC1820FFF7A2FC00221146E0
:100EF0001920FFF7ABFC1920FFF79AFC00221146DE
:100F00001A20FFF7A3FC1A20FFF792FC00221146DB
:100F10001B20FFF79BFC1B2034E0B1F1804F11D068
:100F2000224A91421DD1C16941F00201C161C069EB
:100F3000002200F00200009011461D20FFF786FC01
:100F40001D201FE0C16941F00101C161C06900229B
:100F500000F00100009011461C20FFF777FC1C20D8
:100F600010E0134A914211D1C16941F00401C161FD
:100F7000C069002200F00400009011461E20FFF717
:100F800065FC1E20BDE80840FFF752BC094A9142AB
:100F900007D1C16941F00801C161C06900F00800D2
:100FA000009008BD002C01400010024000040040E9
:100FB00000080040000C004090F83D10012901D0CD
:100FC00001207047022180F83D1000680E498842D8
:100FD0000ED00E4988420BD0B0F1804F08D00C499A
:100FE000884205D00B49884202D00B49884204D17F
:100FF000816801F00701062903D0016841F0010171
:101000000160002070470000002C014000340140C6
:101010000004004000080040000C004001680A6A1B
:1010200041F211131A4207D10A6A9B101A4203D1E6
:101030000A6822F001020A60012180F83D100020B8
:10104000704770B5044690F83C00012817D0012580
:1010500084F83C50022084F83D002068826822F029
:10106000770222F47F4282600868502830D00DDC7D
:1010700020284DD005DC98B310283BD148E0022051
:1010800070BD302844D0402834D139E0602828D0C1
:10109000702806D0B0F5805F2CD0B0F5005F29D164
:1010A0000AE0CB68D1E90121206800F0FCFE20684D
:1010B000816841F0770109E0CB68D1E9012120681E
:1010C00000F0F1FE2068816841F48041816011E008
:1010D000CA684968206800F0BBFF5021206807E01B
:1010E00016E0CA684968206800F0C3FF60212068E4
:1010F00000F0E3FE84F83D50002084F83C0070BD11
:10110000CA684968206800F0A3FF40212068EFE723
:10111000226801461046EBE7704770B50446006848
:1011200001694FF00005C943890715D4C168C94357
:10113000890711D4E91E01610120207720688069A8
:101140008007204602D0FFF7E7FF04E000F048F9EF
:10115000204600F006FC257720680169C94349074D
:1011600017D4C168C943490713D46FF00401016162
:10117000022020772068806910F4407F204602D04A
:10118000FFF7CAFF04E000F02BF9204600F0E9FB6E
:10119000257720680169C943090716D4C168C94386
:1011A000090712D46FF0080101610420207720683C
:1011B000C0698007204602D0FFF7AEFF04E000F0D0
:1011C0000FF9204600F0CDFB257720680169C9435F
:1011D000C90617D4C168C943C90613D46FF01001FA
:1011E0000161082020772068C06910F4407F204604
:1011F00002D0FFF791FF04E000F0F2F8204600F083
:10120000B0FB257720680169C943C90708D1C168C7
:10121000C943C90704D1891E0161204600F0A2FB21
:1012200020680169C943090609D4C168C943090690
:1012300005D46FF0800101612046FFF7A9FD206809
:101240000169C943490609D4C168C943490605D49F
:101250006FF040010161204600F085FB20680169C4
:10126000C94389060BD4C168C943890607D46FF006
:10127000200101612046BDE87040FFF78ABD70BDC6
:1012800070B586B000210091019102910391394916
:10129000374C03688D1502223748A3420BD18B6966
:1012A00043F004038B618969CDE9005201F0040128
:1012B000CDE903215AE0314CB3F1804F1CD0304EC0
:1012C000B34231D1886940F010008861886969466D
:1012D00000F0100004904020CDE90002294803925C
:1012E000FFF746F9606820F4406040F0E06040F4A9
:1012F0004060606006B070BD8B6943F004038B6191
:101300008969039201F0040104914FF40041CDE991
:1013100000126946FFF72CF9606820F4407040F035
:10132000E06040F48070E4E7174CA3420FD1886975
:1013300040F0080088618869CDE9005200F008009B
:10134000CDE9032069461148FFF712F9D2E7104CA6
:10135000A342CFD18B6943F004038B618969039267
:1013600001F0040104910121CDE900126946EBE787
:10137000002C014000100240000801400000014024
:10138000000400400010014000080040000C014033
:10139000000C004010B5044690F83C0001280AD02B
:1013A000012084F83C0042B1042A0AD0082A0CD05B
:1013B0000C2A11D10DE0022010BD206800F086FD3E
:1013C0000AE0206800F0B2FD06E0206800F0E4FDCD
:1013D00002E0206800F014FE002084F83C0010BDFC
:1013E0002DE9F05F07460068904BDFF84492DFF884
:1013F00044A2914CA9F110064FF0000B55469842BB
:1014000044D18E49C1F800B0D9F80000401CC9F899
:101410000000C0073AD12A78DFF82482EAB34046B8
:10142000012A01683046006804D0022A1DD0032A30
:101430002CD111E034F81030CB6234F81010C8F819
:101440000C10D8F8002049085163401C3060322845
:101450001CD30320287019E0DAF80410491ECAF8DA
:101460000410012912DA0220F4E7401E306034F83B
:101470001030CB6234F81010C8F80C10D8F80020E7
:101480004FEA5101516301D185F800B038684FF03F
:101490008043984260D16B4900E009E0C1F800B098
:1014A000D9F80810491CC9F80810C80717D053E02C
:1014B00000221146184600F0E9FCD8F800106FF041
:1014C000020008615E48FFF7A9FD00215C4800F0BA
:1014D0005FF9D8F80010C1F824B00120BAE7A87865
:1014E000DFF86481F0B3012804D0022820D003285B
:1014F00032D114E0B068D8F8003034F81020DA6245
:1015000034F81020C8F80C20D8F8001052084A63AC
:10151000401CB06032281FD30320A8701CE0DAF80A
:101520000800401ECAF80800012815DA0220F4E776
:10153000B068401EB060D8F8003034F81020DA628D
:1015400034F81020C8F80C20D8F800104FEA5202E6
:101550004A6301D185F802B03C48396881421ED106
:101560005B4600E01DE03A49C1F800B0D9F80C2014
:10157000521CC9F80C20D10711D1E978354FC1B3FD
:10158000012925D0022935D0032908D1DAF808002D
:10159000401ECAF80800012801DA0220E870BDE800
:1015A000F09F00221146184600F070FCD8F8001099
:1015B0006FF0020008612448FFF730FD0021224847
:1015C00000F0E6F8D8F80010C1F824B00120A4E734
:1015D000F0683A6834F81010D16234F81010F960ED
:1015E0003A6849085163401CF0603228D7D3032081
:1015F000D4E710E0F068401EF0603A6834F810104C
:10160000D16234F81010F9603A684FEA5101516321
:10161000C5D1EB70C3E70022114600F037FC3968F2
:101620006FF0020008610120B8E70000002C0140C3
:101630007800002000000020500100204800002019
:10164000A80300204C000020F0030020000400400C
:10165000500000203804002010B5040003D094F896
:101660003D0010B107E0012010BD002084F83C00CF
:10167000204600F01EF8022084F83D00211D20685D
:1016800000F0BEFB012084F8460084F83E0084F898
:101690003F0084F8400084F8410084F8420084F858
:1016A000430084F8440084F8450084F83D0000209D
:1016B00010BD704710B50446022249B1042912D06A
:1016C00008291CD094F84100012823D0012010BD26
:1016D00094F83E000128F9D184F83E202068C268C1
:1016E00042F0020209E094F83F000128EED184F8AC
:1016F0003F202068C26842F00402C2600EE094F805
:1017000040000128E2D184F840202068C26842F0FD
:101710000802F2E784F841200C292AD0012220682F
:1017200000F0B4FB15492068154A884201D0904268
:1017300003D1436C43F400434364206888420DD0D6
:1017400090420BD0B0F1804F08D00E49884205D0AE
:101750000D49884202D00D49884204D1816801F0C8
:101760000701062903D0016841F001010160002052
:1017700010BD2068C26842F01002BEE7002C014094
:10178000003401400004004000080040000C00400C
:1017900030B5044600680D0006D0042D08D0082D91
:1017A00038D00C2D08D139E0C16821F0020102E0E7
:1017B000C16821F00401C16000222946206800F0C0
:1017C00065FB1D4B41F2111120688A10984202D02E
:1017D0001A4B984209D1036A0B4206D1036A13429D
:1017E00003D1436C23F4004343642068036A0B4233
:1017F00006D1016A114203D1016821F001010160A3
:1018000001207DB1042D10D0082D11D084F84100A5
:10181000002030BDC16821F00801CCE7C16821F08B
:101820001001C8E784F83E00F2E784F83F00EFE7D4
:1018300084F84000ECE70000002C01400034014037
:1018400070B5044690F83C000D4601280AD00120EE
:1018500084F83C0042B1042A18D0082A2AD00C2A65
:101860004DD139E0022070BD206800F02FFB2068C8
:10187000816941F0080181612068816921F00401DA
:101880008161206881692A69114311E0206800F0B4
:101890004DFB2068816941F40061816120688169A4
:1018A00021F480618161206881692A6941EA02210D
:1018B000816124E0206800F06FFB2068C16941F07D
:1018C0000801C1612068C16921F00401C16120687B
:1018D000C1692A69114311E0206800F091FB20687A
:1018E000C16941F40061C1612068C16921F480616E
:1018F000C1612068C1692A6941EA0221C1610020F1
:1019000084F83C0070BD10B5040003D094F83D008D
:1019100010B107E0012010BD002084F83C002046F3
:1019200000F01EF8022084F83D00211D206800F020
:1019300067FA012084F8460084F83E0084F83F00EE
:1019400084F8400084F8410084F8420084F84300A1
:1019500084F8440084F8450084F83D00002010BD60
:101960007047704770477047FEE700002DE9F0416F
:1019700086B0002424480094019402940394816961
:1019800041F010018161816901F0100104918169C8
:1019900041F020018161816901F020010491816998
:1019A00041F004018161816901F0040104918169C0
:1019B00041F0080181618069144F00F008004EF287
:1019C00001050490002229463846FEF7CDFEDFF8D7
:1019D0004080002238214046FEF7C6FE00950226D0
:1019E00001250396CDE9015469463846FEF7C0FD4E
:1019F0003820CDE90005CDE9024669464046FEF7AC
:101A0000B7FD06B0BDE8F0810010024000100140B3
:101A1000000C014010B596B000240F94109411945E
:101A2000129413941C2108A81494FEF7A4FB2021FF
:101A30006846FEF7A0FB2948274901600F21C0E94D
:101A400001144FF6FF71C0E9031444618461FFF78C
:101A500009FA08B1FEF779FD4FF480500F900FA9F5
:101A60001E48FFF7EEFA08B1FEF76FFD1B48FFF7BF
:101A7000F3FD08B1FEF769FD139413A917481494F8
:101A8000FFF7B2F908B1FEF760FD302008904FF47F
:101A90002F70CDE909040B940C940D94002208A931
:101AA0000E480E94FFF776FC08B1FEF74EFD009449
:101AB0004FF40050CDE90440029401940394694628
:101AC00006480794FFF766F908B1FEF73EFD0348A4
:101AD000FFF7D6FB16B010BD002C0140A803002074
:101AE00010B58EB000240794089409940A940B94BE
:101AF0001C2168460C94FEF73EFB1F484FF08041C6
:101B000001600F21C0E901144FF6FF71C0E9031411
:101B10008461FFF7A7F908B1FEF717FD4FF4805075
:101B2000079007A91448FFF78CFA08B1FEF70DFDDE
:101B30001148FFF791FD08B1FEF707FD0B940BA9C3
:101B40000D480C94FFF750F908B1FEF7FEFC302069
:101B500000904FF42F70CDE9010400226946064839
:101B60000494FFF717FC08B1FEF7EFFC0248FFF7FB
:101B700087FB0EB010BD0000F003002010B58EB042
:101B800000240794089409940A940B941C21684635
:101B90000C94FEF7F0FA1F481D4901600F21C0E9BF
:101BA00001144FF6FF71C0E903148461FFF75AF97D
:101BB00008B1FEF7CAFC4FF48050079007A91548FA
:101BC000FFF73FFA08B1FEF7C0FC1248FFF744FDEB
:101BD00008B1FEF7BAFC0B940BA90E480C94FFF762
:101BE00003F908B1FEF7B1FC302000904FF42F70DC
:101BF000CDE901040022694606480494FFF7CAFBB8
:101C000008B1FEF7A2FC0348FFF73AFB0EB010BD87
:101C1000000400403804002010B58EB00024079462
:101C2000089409940A940B941C2168460C94FEF7BE
:101C3000A2FA1F481D4901600F21C0E901144FF6A7
:101C4000FF71C0E903148461FFF70CF908B1FEF7D6
:101C50007CFC4FF48050079007A91548FFF7F1F975
:101C600008B1FEF772FC1248FFF7F6FC08B1FEF768
:101C70006CFC0B940BA90E480C94FFF7B5F808B157
:101C8000FEF763FC302000904FF42F70CDE9010483
:101C90000822694606480494FFF77CFB08B1FEF76A
:101CA00054FC0348FFF7ECFA0EB010BD00080040EA
:101CB0008004002010B58EB0002407940894099485
:101CC0000A940B941C2168460C94FEF754FA1F48A2
:101CD0001D49016041F61F41C0E90114C821C0E956
:101CE000031480218161FFF7BDF808B1FEF72DFCD8
:101CF0004FF48050079007A91448FFF7A2F908B1E4
:101D0000FEF723FC1148FFF7FEFD08B1FEF71DFCAE
:101D10000B940BA90D480C94FFF766F808B1FEF779
:101D200014FC6020CDE900040294002269460748B3
:101D30000494FFF785FD08B1FEF707FC0348FFF7A1
:101D40009FFA0EB010BD0000000C0040C804002037
:101D5000FEE7704770477047FEF712BD30B58FB091
:101D600028216846FEF707FA14210AA8FEF703FAAD
:101D700001210804CDE900100024029402250491F9
:101D8000CDE907504FF4E01009906846FEF75CFE7D
:101D90000F20CDE90A056802CDE90C4002210AA80E
:101DA0000E94FEF785FD0FB030BD70470148FFF778
:101DB000B4B90000A80300200148FFF7AEB9000045
:101DC000A80300200148FFF7A8B90000A8030020DD
:101DD0000148FFF7A2B90000A80300200148FFF75F
:101DE0009CB90000F00300200148FFF796B90000FD
:101DF000380400200148FFF790B90000800400205B
:101E0000F0B502681C4B1D4D1D4E1E4F1E4C4FF071
:101E1000804C984209D0A04207D0604505D0A84226
:101E200003D0B04201D0B84204D122F0700E4A680B
:101E300042EA0E02984209D0A04207D0604505D080
:101E4000A84203D0B04201D0B84203D122F4407579
:101E5000CA682A434D6922F080022A4302608A68D8
:101E6000C2620A688262984201D0A04201D1096927
:101E7000016301214161F0BD002C014000040040DC
:101E800000080040000C00400034014010B501F093
:101E90001F030121046A99408C430462016A9A403D
:101EA0001143016210BD10B5846842EA032224F494
:101EB0007F440A432243826010BD826822F0700290
:101EC0000A4342F00701816070470000F0B5026AE2
:101ED00022F001020262036A42688469124E24F011
:101EE00073050C682C4323F002058B682B430D4DC2
:101EF000A84201D0B04205D123F00807CB683B438C
:101F000023F00403A84201D0B04205D14D6922F468
:101F1000407215438A692A4342608461496841637B
:101F20000362F0BD002C014000340140F0B5026AAC
:101F300022F010020262026A436884690D6824F488
:101F4000E64444EA05248D6822F0200242EA0512A4
:101F50000F4D104EA84201D0B04206D1CF6822F0FA
:101F6000800242EA071222F04002A84201D0B042A9
:101F700007D14D6923F4406343EA85038D6943EA41
:101F8000850343608461496881630262F0BD00009B
:101F9000002C014000340140F0B5026A22F4807246
:101FA0000262026A4368C46922F4007224F0730575
:101FB0000C68124E2C438D6842EA05220E4DA84251
:101FC00001D0B04206D1CF6822F4006242EA072273
:101FD00022F48062A84201D0B04207D14D6923F4B7
:101FE000405343EA05138D6943EA05134360C46116
:101FF0004968C1630262F0BD002C01400034014019
:1020000030B5026A22F480520262046A4268C369EF
:102010000D6823F4E64343EA05238D6824F4005455
:1020200044EA0534084DA84202D0084DA84204D124
:102030004D6922F4804242EA85124260C3614968D8
:102040000164046230BD0000002C014000340140F6
:1020500010B5036A046A24F001040462846924F060
:10206000F00444EA021423F00A020A438461026283
:1020700010BD10B5036A23F0100303628369046A7C
:1020800023F4704343EA023224F0A00343EA01112F
:102090008261016210BDFEE74100080218BF042002
:1020A0000A0E18BF40F001004FF07F4232EA0101F2
:1020B00008BF40F00200012808BF0520704709074B
:1020C000090E002804DB00F1E02080F800147047BE
:1020D00000F00F0000F1E02080F8141D704701218E
:1020E000FEF71CB961214FF0E040FEF717B96FF021
:1020F0005E010807FEF712B902E008C8121F08C106
:10210000002AFAD170477047002001E001C1121F78
:10211000002AFBD1704700000149086070470000A9
:10212000640000202DE9F04104464FF019404E496B
:10213000002500EB440088424AD84C492046FEF76F
:102140007DF8FEF756F98046FEF771F906464849D4
:102150004046FEF773F8074646494046FEF76EF8DC
:102160002146FEF768F83946FEF762F80446424910
:10217000FEF764F84149FEF709F82146FEF75EF8DC
:102180006FF04141FEF702F82146FEF757F83C494F
:10219000FDF7FCFF2146FEF751F80146394806F0ED
:1021A0000304784450F82400FEF748F8364979448F
:1021B00051F82410FDF7EAFF3449794451F824100E
:1021C000FDF7E4FFB11085BBBDE8F041FEF7A6B80E
:1021D0004FF0FF4131EA040018D04FF0CE41B1EB8F
:1021E000440F84BF4FF07E50BDE8F0812849B1EB29
:1021F000440F28BF0125A0D20220FFF78DFF14F065
:10220000004F0ED0BDE8F041FFF771BF204614F536
:10221000000F04BF0020BDE8F081BDE8F041FFF7EA
:102220005EBFBDE8F041FFF75DBFFEF777F8040041
:102230000BD0B4F1FF4F0FD0FFF72EFF042808BFDB
:10224000FFF755FF2046BDE8F0810220FFF764FF4D
:10225000BDE8F041FFF74BBF0220FFF75DFFBDE88F
:10226000F041FFF73FBF00000000501E3BAAB840FE
:10227000F4FD05370070313E12BB2A3D12BB2A3EE9
:10228000FFFF7F3F860200006A0200004E0200004E
:102290000000A0851CB5FEF77BFAFFF75FFDFFF796
:1022A00065FBFFF7B7FBFFF71BFCFFF767FCFFF7CA
:1022B000B3FCFFF7FFFC4FF081440025454EDFF8EB
:1022C00018814649CDE9005433464246A1F1C80081
:1022D000FEF7DAF84249CDE9005433464246A1F10F
:1022E000C800FEF7D1F83E49CDE9005433464246D6
:1022F00001F16400FEF7C8F800224EF201013948EE
:10230000FEF732FA384F012208213846FEF72CFA40
:10231000012210213846FEF727FA012220213846F3
:10232000FEF722FA3148FEF747FE3148FEF744FE39
:102330003048FEF741FE3048FEF73EFE00212B48B4
:10234000FFF7B8F900212A48FFF7B4F9002129481E
:10235000FFF7B0F908212848FFF7ACF91E20FEF777
:10236000F5F81E49CDE9005433464246A1F1C800B4
:10237000FEF78AF81A49CDE9005433464246A1F1E6
:10238000C800FEF781F81649CDE9005433464246AD
:1023900001F16400FEF778F81448FEF70DFE1448CA
:1023A000FEF70AFE1348FEF707FE1348FEF704FE89
:1023B00000210E48FFF77EF900210D48FFF77AF95A
:1023C00000210C48FFF776F908210B48FFF772F956
:1023D000FEE700000000FA440000484250010020DF
:1023E0007C02002000100140000C0140A8030020E6
:1023F000F0030020380400208004002000000000CA
:102400000000000001020304060708090000803FE5
:102410000030983F0000B53F0040D73F000000006B
:10242000320A7E397F661E395B991F390000803F72
:10243000F037983FF304B53FFD44D73F5C240008D4
:102440000000002068000000F8200008C4240008F4
:1024500068000020A808000008210008010101010F
:1024600000000000000000000000C8428F09063F85
:10247000000000000000000000000000000000005C
:10248000000000000000000000000000000000004C
:10249000000000000000000000000000000000003C
:1024A000000000000000000000000000000000002C
:1024B0000100000010000000000000000024F400F3
:0424C0000000000018
:0400000508000131BD
:00000001FF
