:020000040800F2
:10000000300800204501000853260008AD220008F2
:1000100051260008B50A0008F12A00080000000077
:10002000000000000000000000000000572600084B
:10003000750B00080000000055260008592600082E
:100040005F0100085F0100085F0100085F01000810
:100050005F0100085F0100085F0100085F01000800
:100060005F0100085F0100085F0100085F010008F0
:100070005F0100085F0100085F0100085F010008E0
:100080005F0100085F0100085F0100085F010008D0
:100090005F0100085F0100085F0100085F010008C0
:1000A0005F0100085F0100085F0100085F010008B0
:1000B0005F010008AD260008B92600085F010008AE
:1000C0005F0100085F0100085F0100085F01000890
:1000D0005F010008E52A00085F0100085F010008D1
:1000E0005F0100085F0100085F0100085F01000870
:1000F0005F0100085F010008D12600085F010008C9
:100100005F0100085F010008C52600085F010008C4
:100110005F0100085F0100085F0100085F0100083F
:100120005F0100085F0100085F0100085F0100082F
:10013000DFF80CD000F0ACFC00480047813000082C
:10014000300800200648804706480047FEE7FEE7E3
:10015000FEE7FEE7FEE7FEE7FEE7FEE7FEE7FEE777
:10016000AB26000831010008202A04DB203A21FADE
:1001700002F00021704721FA02F3D040C2F12002C0
:10018000914008431946704740EA01039B0703D09A
:1001900009E008C9121F08C0042AFAD203E011F8C6
:1001A000013B00F8013B521EF9D27047D2B201E088
:1001B00000F8012B491EFBD270470022F6E710B56C
:1001C00013460A4604461946FFF7F0FF204610BDC5
:1001D000F0B480EA0102D40F4200B2EB410F02D228
:1001E0000246084611464A0042D0C30DDDB2C1F3B3
:1001F000C752AD1A202D35DAC1F3160141F40002C1
:1002000004B15242C5F1200602FA06F12A41104417
:10021000B3EBD05F23D0C4B1012DA0EBC35009DCF8
:10022000F0BC4FF0004202EAC352DBB200F500001E
:1002300000F004BB400000F1807000EBC350A0F15F
:10024000807040EAD170490009E0490841EAC07174
:10025000A0EBC35000F50000400800EBC350F0BC19
:1002600000F0E3BA6142012202EB4101001BF6E714
:10027000F0BC704781F00041AAE780F00040A7E79A
:1002800080EA010210B502F00043400022D04A008B
:100290001FD0010E01EB1261C0F35600C2F35602EB
:1002A00040F4000042F40002A0FB022000047F3969
:1002B000140400D0401C50EA124001D44000491EF2
:1002C000C2B20C0604EBD010401C4008802A02D0B9
:1002D00003E0002010BD20F00100002900DA00201A
:1002E000184310BD30B480EA010202F0004530F03E
:1002F000004221F0004013D090B1C30DD40DC2F3E1
:100300001601C0F31600E41A41F4000140F40002A3
:100310007D34914201D3641C00E04900002C02DAD4
:1003200030BC002070474FF400000023914201D3FD
:10033000891A034340084FEA4101F7D151B1914274
:1003400002D14FF0004105E002D24FF0010101E07F
:100350006FF0010103EBC450284430BC00F065BAD3
:10036000420005D0C0F3C7525242914201DC002046
:10037000704700EBC15070472DE9FE4F804681EA7F
:100380000300C00F0C46009021F0004123F000450F
:10039000B8EB0200A94105D24046214690461C46D2
:1003A0000B46024623F00040104347D0270DC7F309
:1003B0000A00C3F30A510290401A019040286BDAF8
:1003C000C3F3130040F4801B0098924620B1002331
:1003D000D2EB030A63EB0B0B01985946C0F14002C4
:1003E000504600F001FA06460D4650465946019A1D
:1003F00000F009FA10EB08006141002487EA11526D
:1004000084EAE7731A4340D0009A62B3019A012A42
:100410004FEA075215DC001B61EB02014FF000426E
:1004200002EA0752CDE90042001C41F58011324634
:100430002B4600F05EFA03B0BDE8F08F404621463F
:10044000F9E7001B61EB0201001C41F58013001865
:100450005B412018A2F5001747EB030140EAD57075
:10046000B6196D4111E06D084FEA360645EAC075D0
:100470004FEA0752001B61EB0201001C41F580119D
:1004800049084FEA30000019514132462B4603B06B
:10049000BDE8F04F00F01EBA009801224000002392
:1004A000D0EB020263EBE073009821464FEAE07460
:1004B000B8EB000061EB0401E9E783F000435BE780
:1004C00081F0004158E72DE9FE4F81EA030404F072
:1004D000004421F0004100944FF0000B23F0004352
:1004E00050EA01045ED052EA03045BD0C3F30A541D
:1004F000C1F30A552C44A4F2F3340194A0FB025436
:10050000C1F3130141F48011C3F3130343F48013C7
:1005100001FB024400FB034E840A970A44EA81541B
:1005200047EA8357A4FB076802958D0A05FB0785F8
:100530004FEA932C04FB0C542705029D4FEA065802
:1005400047EA1637B5EB08056EEB070C870E920EDF
:1005500047EA811742EA8312A7FB0201B6EB0B01BF
:1005600064EB00042B0D43EA0C335E1844EB1C5083
:10057000DA465146E7FB0201C5F313044FEA0B3399
:1005800043EA14534FEA0432019C43EA0603A4F100
:100590000C040294009CCDE900B400F0AAF903B069
:1005A000BDE8F08F00200146F9E72DE9F04D81EA22
:1005B000030404F0004B21F0004514464FF0000AFC
:1005C00023F0004150EA050220D054EA01021DD078
:1005D000C5F30A570246C5F31303C1F31300C1F371
:1005E0000A5640F4801543F48013A7EB0608101B4D
:1005F000D64608F2FD3873EB050002D308F1010876
:1006000001E092185B41B8F1000F03DA00200146C7
:10061000BDE8F08D00204FF48011064684460EE0C0
:10062000171B73EB050705D3121B63EB050306438A
:100630004CEA010C49084FEA300092185B4150EA3D
:100640000107EDD152EA030012D082EA040083EAE6
:100650000501084305D0101BAB4106D2012200233F
:1006600006E000224FF0004302E06FF00102531059
:100670001AEB06004CEB085110EB0A0041EB0B01A2
:10068000BDE8F04D00F026B9C10F80EAE0700844E3
:10069000CA079623002100F0D1B820F00040C10D18
:1006A000C0F3160040F400007F2901DA00207047F3
:1006B000962903DCC1F19601C840704796398840FD
:1006C000704770B5C1F30A5201F000450024C1F330
:1006D000130140F2FF3341F480119A4201DA002005
:1006E00070BD40F233439A42A2F2334203DC5242DD
:1006F000FFF73AFD00E090402C43F1D0404270BD3E
:1007000000F0004230F000400AD0C10D01F56071E8
:10071000C0F3160042EA0151C20840071143704776
:10072000002001467047000030B5041E71F100043E
:1007300004DB4FF00044404264EB0101141E73F1EE
:10074000000405DB1C464FF00043524263EB0403F8
:100750008B4208BF824230BD30B5041E71F10004E7
:1007600004DB4FF00044404264EB0101141E73F1BE
:10077000000405DB1C464FF00043524263EB0403C8
:10078000994208BF904230BD01F0004330B421F0DF
:10079000004150EA010206D00A0DA2F56072C1F3D1
:1007A0001301002A02DC30BC00207047440F44EAE9
:1007B000C104C100E01830BC00EBC25000F035B8F5
:1007C000002801DBC0F10040002901DBC1F100413C
:1007D00081427047002801DBC0F10040002901DBA5
:1007E000C1F1004188427047202A04DB203A00FA18
:1007F00002F1002070479140C2F1200320FA03F378
:10080000194390407047202A06DBCB17203A41FA63
:1008100002F043EAE07306E041FA02F3D040C2F18D
:10082000200291400843194670470029A8BF70472D
:10083000401C490008BF20F00100704710B4B0FA16
:1008400080FC00FA0CF050EA010404BF10BC7047B1
:1008500049B1CCF1200421FA04F411FA0CF118BFCB
:10086000012121430843A3EB0C01CB1D4FEA00619A
:100870004FEA102042BF002010BC704700EBC3506D
:1008800010440029A4BF10BC7047401C490008BF99
:1008900020F0010010BC704710B541000CD0C0F32F
:1008A000C751962908DC7E2909DC06DB410204D009
:1008B00000F0004040F07E5010BD002010BDC1F19E
:1008C0009604C4F1200100FA01F1E040FFF7ADFF0A
:1008D000A04010BD10B5141E73F1000408DA401CCE
:1008E00041F1000192185B411A4301D120F001004F
:1008F00010BD2DE9F04D92469B4611B1B1FA81F23F
:1009000002E0B0FA80F220329046FFF76DFF044615
:100910000F4640EA0A0041EA0B0153465A46084393
:1009200013D0114653EA010019D0C8F140025046D5
:10093000FFF71AFC05460E46504659464246FFF759
:1009400053FF084305D0012004E020463946BDE8A6
:10095000F08D0020054346EAE0762C4337430A98A1
:100960006305E40AA0EB08000022FD0A44EA4754AC
:100970000A3002D500200146E9E701051019694156
:10098000DDE9084500196941BDE8F04DA2E770B501
:1009900021F0004303430CD0C1F30A550024D5EBEA
:1009A000040564EB0403D617AD1AB34102DB002043
:1009B000014670BD201841EB025170BD2DE9F04D8C
:1009C00000231A461B1A8A4103DB00200146BDE8BA
:1009D000F08DC1F30A52C1F3130141F480154FF0B9
:1009E000000BD10702D100186D41521E00270446AA
:1009F00040F2FF11384601EB620A3E46804602464D
:100A000000204FF48011FFF7AFFBC2197141BB18F2
:100A100046EB0100B4EB030C75EB000C04D3E41AB5
:100A200065EB000517460E46241908F101006D41DB
:100A300080463428E3DDF91946EB0600091BA8417E
:100A400003D24FF0FF32134601E0002213461BEBA6
:100A5000070046EB0A51BDE8F04DFFF73BBF00F041
:100A6000004220F00040C10DC0F3160040F4000029
:100A70007F2901DA00207047962903DCC1F1960135
:100A8000C84001E096398840002AF4D040427047BF
:100A9000064C074D06E0E06840F0010394E80700CB
:100AA00098471034AC42F6D3FFF746FBC83700082E
:100AB000E8370008FEE700002DE9F05F814628488E
:100AC0008846DDF82CB001682648643992464160BA
:100AD0002549002409686439816018460A99FFF79E
:100AE000C9FB074631E000BF4FF0FF315046FFF72A
:100AF00037FC054629463046FFF7BCFB5946FFF751
:100B0000BFFB2946FFF7EEFB80F0004002F000FA41
:100B10004FF07E552946FFF75BFB01462846FFF75D
:100B2000E1FB01463846FFF7ABFB0A99FFF750FBA4
:100B300049F824000D4850F824100D48FFF7D2FB67
:100B4000FFF7ABFD28F81400641C2046FFF79CFD5E
:100B500006465146FFF734FEC6D3BDE8F09F0000BD
:100B60002400002000000020280000207400002045
:100B70004054894A704770472DE9F05F90F8211082
:100B80000024022903D004218163012485E0016847
:100B90000A6822F00E020A6001680A6822F0010267
:100BA0000A603F4E3E4FB215DFF8F4C0DFF8F09018
:100BB000DFF8ECA0DFF8E8B0DFF8E4E00168783FA8
:100BC00013011502ACF1640CA9F15009AAF13C0A19
:100BD000ABF1280BAEF1140E4FF48018B14227D9B7
:100BE000B9420ED0614512D049451DD0514518D0AB
:100BF000594518D0714501D1424615E0294EB14200
:100C000001D1012210E0274E1436B14201D1102249
:100C10000AE0244E2836B14206D0224A3C329142A4
:100C200001D11A4600E02A461E49091F0A602BE03E
:100C3000B94213D0614517D0494522D051451DD046
:100C400059451DD0714501D142461AE0B14202D149
:100C50004FF0807215E0134EB14201D1012210E035
:100C6000104E1436B14201D110220AE00D4E283642
:100C7000B14206D00B4A3C32914201D11A4600E003
:100C80002A46074980394A60012180F82110002155
:100C900080F82010416B01B188472046BDE8F09FE5
:100CA000800002400804024070B5044600F010F9CC
:100CB0000546601C02D004480078044400F008F99E
:100CC000401BA042FAD370BD400000202DE9F84F30
:100CD000DFF8C891002409F1040A0AF1040B234645
:100CE0000F270BF1040ED1E00125A54006EA05020D
:100CF000AA4276D1DFF8A8C14E68A6EB0C0866457B
:100D00002BD00DDC032E34D005DC36B3012E19D0E8
:100D1000022E2FD11BE0112E16D0122E2AD119E04F
:100D2000B8F5881F19D006DCB8F5803F15D0B8F5A6
:100D3000801F1FD111E0B8F5001F0ED0B8F5041FB9
:100D400018D10AE0CB6815E0CB681B1D12E0CB6818
:100D500008330FE0CB680C330CE08B682BB1012B10
:100D60004FF0080303D0456104E0042302E005616D
:100D700000E00023FF2A01D8064601E000F1040646
:100D80004FEA840501D9A5F12005D6F8008007FABD
:100D900005FC28EA0C0803FA05F548EA0508C6F838
:100DA00000804D68ED0070D53E4DAE6946F00106FD
:100DB000AE61AD6924F0030605F0010500953A4DDA
:100DC00006EB050CDCF80850A607360F07FA06F804
:100DD00025EA0805DFF8D480404503D14FF000082C
:100DE00025E052E0DFF8C880404502D14FF001080D
:100DF0001DE0DFF8C080404502D14FF0020816E048
:100E0000DFF8B480404502D14FF003080FE0DFF86F
:100E1000AC80404502D14FF0040808E0DFF8A08024
:100E2000404502D14FF0050801E04FF0060808FAEE
:100E300006F848EA0508CCF808804D68D9F8006043
:100E4000ED034D4601D5164300E096432E604D68F4
:100E5000DAF80060AD03554601D5164300E096432D
:100E60002E604D68DBF80060ED025D4601D516434B
:100E700000E096432E604D68DEF80060AD027546D6
:100E800001D5164300E096432E60641C0A6816469E
:100E9000E2407FF429AFBDE8F88F00000004014074
:100EA0000000111000100240000001400008014045
:100EB000000C0140001001400014014000180140E6
:100EC000001C01400AB1016170470904FBE7000002
:100ED0000148806870470000400000200248816897
:100EE000027811448160704740000020074810B527
:100EF000016841F010010160032000F075F8002046
:100F000000F006F800F024F8002010BD0020024098
:100F100070B50D4D04464FF47A712878B1FBF0F0AE
:100F20000A490968B1FBF0F000F0ECFA48B9102C5E
:100F300007D200222146501E00F036F800206C60D7
:100F400070BD012070BD0000400000204C0000205A
:100F50000C4808B5816941F001018161816901F0A6
:100F600001010091C16941F08051C161C06900F087
:100F7000805000900448416821F0E06141F0007128
:100F8000416008BD0010024000000140002809DB5C
:100F900000F01F02012191404009800000F1E02093
:100FA000C0F8001170470000F0B40E4B1B680C46EF
:100FB000C3F30223C3F10705042D00D90425191D2D
:100FC000072901D2002300E0DB1E012606FA05F105
:100FD000491E214099409E40761E16403143F0BC88
:100FE00001F0AEBD0CED00E0064900F00702086814
:100FF0004FF6FF03184040EA0220034A10430860FE
:10100000704700000CED00E00000FA052DE9F04704
:101010000F46050061D0434E306800F00700B8422B
:1010200009D2306820F0070038433060306800F0A3
:101030000700B84251D128683B4C810712D54007C0
:1010400003D5606840F4E06060602878000703D54D
:10105000606840F4605060606068A96820F0F0004B
:10106000084360602878C00728D06868012810D03D
:101070002168022810D0890700292EDA616821F042
:10108000030101436160FFF723FF804641F2883985
:101090000DE021688903EFE78901EDE7FFF718FF0D
:1010A000A0EB0801494502D90320BDE8F08760683C
:1010B000696800F00C00B0EB810FEFD1306800F0F0
:1010C0000700B8420BD9306820F007003843306081
:1010D000306800F00700B84201D00120E5E7287829
:1010E000400705D56068E96820F4E0600843606067
:1010F0002878000706D56068296920F4605040EA26
:10110000C100606000F038F86168084AC1F303115B
:10111000515CC8400649086006480068FFF7F8FEC1
:101120000020C2E70020024000100240E83600081C
:101130004C0000204400002004480549006849682C
:10114000044AC1F30221515CC84070474C000020A2
:1011500000100240F8360008044805490068496854
:10116000044AC1F3C221515CC84070474C000020C2
:1011700000100240F836000812A185B00FC98DE8B2
:101180000F0014A0144A006804905168134801F03D
:101190000C03042B10D0082B0ED1C1F38343C903D9
:1011A0001DF803000AD5516804AAC1F34041515CFF
:1011B0000A4A5043B0FBF1F005B070470849484374
:1011C000FAE7000002030405060708090A0B0C0DE4
:1011D0000E0F1010010200000010024000127A00F1
:1011E00000093D002DE9F84F040070D02078C04D73
:1011F000C00749D06868C0F38100012807D068683B
:10120000C0F38100022809D16868C00306D52868A8
:10121000800339D560680028E7D035E06068B0F514
:10122000803F0BD010B1B0F5A02F11D0286820F46A
:1012300080302860286820F4802002E0286840F48C
:1012400080302860606890B1FFF742FE06460AE0F1
:10125000286840F480202860F0E700BFFFF738FEE0
:10126000801B642873D828688003F7D50CE0FFF74B
:101270002FFE064605E000BFFFF72AFE801B64280C
:10128000F0D828688003F7D420789A4E80074FF072
:1012900001094FF0000839D5686810F00C0F07D02D
:1012A0006868C0F38100022809D16868C00306D4C9
:1012B0002868800714D52069012808D110E020692A
:1012C000B0B1C6F80090FFF703FE074605E00AE15B
:1012D000FFF7FEFDC01B0228C4D828688007F7D599
:1012E0002868616920F0F80040EAC10028600DE03C
:1012F000C6F80080FFF7ECFD074604E0FFF7E8FDC5
:10130000C01B022823D828688007F7D4207800075C
:101310002CD57948A169D9B1C0F80090FFF7D8FD64
:10132000074604E0FFF7D4FDC01B02280FD8686A07
:101330008007F7D571484FF4FA510068B0FBF1F01F
:10134000009000BF0098411E0091FAD20EE080E0AC
:10135000C0F80080FFF7BCFD074604E0FFF7B8FDCA
:10136000C01B022875D8686A8007F7D42078400728
:1013700060D5E8690027C00008D4E86940F08050D3
:10138000E861E869012700F0805000905C4801683E
:10139000C90513D40168834641F480710160FFF7E9
:1013A00097FD824606E000BFFFF792FDA0EB0A0022
:1013B00064284ED8DBF80000C005F5D5E0680128A8
:1013C0000AD008B1052813D0286A20F0010028624D
:1013D000286A20F0040002E0286A40F00100286238
:1013E000E06841F2883B98B1FFF772FD82460BE05E
:1013F000286A40F004002862EEE700BFFFF768FDAE
:10140000A0EB0A0159455AD8286A8007F6D50CE0A6
:10141000FFF75EFD824605E0FFF75AFDA0EB0A01EB
:1014200059454CD8286A8007F6D41FB1E86920F0E6
:101430008050E861E06988B36968C1F381010229DD
:1014400044D00228C6F8608004D0FFF741FD04466E
:1014500038E034E0FFF73CFD074604E0FFF738FDD5
:10146000C01B02282BD828688001F7D4206AB0F569
:10147000803F05D16868A16820F4003008436860A7
:10148000D4E908010843696821F4741108436860CD
:10149000C6F86090FFF71CFD044606E025E000BF9B
:1014A000FFF716FD001B022809D828688001F7D530
:1014B0001BE000BFFFF70CFD001B022802D9032030
:1014C000BDE8F88F28688001F4D40EE00128F7D039
:1014D0006868226A00F48031914204D1616A00F4A4
:1014E0007010884201D00120EAE70020E8E7000000
:1014F0000010024000004242800442424C000020A2
:101500000070004010B5401EB0F1807F01D3012073
:1015100010BD4FF0E02460610F21601701F010FB57
:101520000020A06107202061002010BD7047704797
:1015300010B590F83C20012A22D0012280F83C20EE
:10154000CA688C6822F4407222434C6822F480629C
:1015500022430C6822F4006222430C6922F4805278
:1015600022434C6922F400522243C969002322F429
:1015700080420A4301684A6480F83C30002010BD74
:10158000022010BD70B590F83C20012A2CD0012417
:1015900080F83C40022280F83D2003685A689D682C
:1015A00022F070060A6832435A60104B02689A4271
:1015B0000ED00F4B9A420BD0B2F1804F08D00D4B9A
:1015C0009A4205D00C4B9A4202D00C4B9A4204D15D
:1015D000496825F080031943916080F83D4000215F
:1015E00080F83C10084670BD022070BD002C014000
:1015F000003401400004004000080040000C00409E
:1016000010B5040003D094F83D0010B107E00120AC
:1016100010BD002084F83C00204600F01FF8022096
:1016200084F83D00211D206801F058F8012084F85D
:10163000460084F83E0084F83F0084F8400084F8B7
:10164000410084F8420084F8430084F8440084F8A0
:10165000450084F83D00002010BD000008B5274A71
:101660000168274891420ED1C16941F00201C16170
:10167000C069002200F00200009011461D20FFF713
:1016800093FC1D2034E01F4A91420ED1C16941F004
:101690000401C161C069002200F0040000901146FD
:1016A0001E20FFF781FC1E2022E0174A91420ED136
:1016B000C16941F00801C161C069002200F0080061
:1016C000009011463220FFF76FFC322010E00F4AE5
:1016D000914211D1816941F40051816180690022F8
:1016E00000F40050009011462E20FFF75DFC2E20E4
:1016F000BDE80840FFF74ABC08BD000000040040F8
:101700000010024000080040000C0040003401407E
:1017100090F83D10012901D001207047022180F886
:101720003D1000680E4988420ED00E4988420BD009
:10173000B0F1804F08D00C49884205D00B4988424F
:1017400002D00B49884204D1816801F007010629C3
:1017500003D0016841F001010160002070470000E2
:10176000002C01400034014000040040000800400B
:10177000000C004001680A6A41F211131A4207D1B5
:101780000A6A9B101A4203D10A6822F001020A6019
:10179000012180F83D100020704770B5044690F894
:1017A0003C00012817D0012584F83C50022084F821
:1017B0003D002068826822F0770222F47F42826036
:1017C0000868502830D00DDC20284DD005DC98B3B7
:1017D00010283BD148E0022070BD302844D040287A
:1017E00034D139E0602828D0702806D0B0F5805F69
:1017F0002CD0B0F5005F29D10AE0CB68D1E90121F6
:10180000206800F0BEFF2068816841F0770109E0A0
:10181000CB68D1E90121206800F0B3FF206881681E
:1018200041F48041816011E0CA684968206801F094
:101830007DF85021206807E016E0CA6849682068F2
:1018400001F085F86021206800F0A5FF84F83D5084
:10185000002084F83C0070BDCA684968206801F027
:1018600065F840212068EFE7226801461046EBE763
:10187000704770B50446006801694FF00005C94320
:10188000890715D4C168C943890711D4E91E0161CC
:1018900001202077206880698007204602D0FFF76A
:1018A000E7FF04E000F02CF9204600F07EFB2577EE
:1018B00020680169C943490717D4C168C94349076A
:1018C00013D46FF004010161022020772068806941
:1018D00010F4407F204602D0FFF7CAFF04E000F07A
:1018E0000FF9204600F061FB257720680169C943A4
:1018F000090716D4C168C943090712D46FF008015B
:101900000161042020772068C0698007204602D04A
:10191000FFF7AEFF04E000F0F3F8204600F045FBCF
:10192000257720680169C943C90617D4C168C9432E
:10193000C90613D46FF010010161082020772068D8
:10194000C06910F4407F204602D0FFF791FF04E009
:1019500000F0D6F8204600F028FB257720680169C2
:10196000C943C90708D1C168C943C90704D1891E41
:101970000161204600F074FB20680169C943090633
:1019800009D4C168C943090605D46FF0800101611B
:101990002046FFF7CBFD20680169C943490609D4F9
:1019A000C168C943490605D46FF040010161204672
:1019B00000F057FB20680169C94389060BD4C16850
:1019C000C943890607D46FF0200101612046BDE8B4
:1019D0007040FFF7ACBD70BD10B586B0002100911E
:1019E0000191029103912A4C03682A4902222A4854
:1019F000A34209D18B6943F004038B61896901F02B
:101A000004010491402128E0244CA34219D18869A3
:101A100040F0200088618869694600F02000049049
:101A20004FF44050CDE900021D480392FFF74EF9F4
:101A30001C48416841F0E06141F48051416006B0CA
:101A400010BD194CA34210D18B6943F004038B6184
:101A5000896901F0040104910321CDE9001269466E
:101A6000CDF80C20FFF732F9E9E710488342E6D1C0
:101A7000886940F0100088618869694600F01000AC
:101A80000490C020CDE9000209480392EAE7000073
:101A9000000400400010024000080140000800401F
:101AA0000014014000000140000C004000340140DF
:101AB0000010014010B5044690F83C0001280AD0FF
:101AC000012084F83C0042B1042A0AD0082A0CD034
:101AD0000C2A11D10DE0022010BD206800F064FE38
:101AE0000AE0206800F090FE06E0206800F0C2FEE8
:101AF00002E0206800F0F2FE002084F83C0010BDF7
:101B00002DE9F05F814601685D48DFF878A15E4C01
:101B10004FF0030BAAF110064FF000082546814252
:101B20003ED1C5F80C80DAF80020521CCAF800201B
:101B3000D10735D12378554FF3B33846544902685D
:101B40003046012B006804D0022B1AD0032B27D17A
:101B50000FE031F81030D36231F81010F9603A68B4
:101B600049085163401C3060322819D384F800B012
:101B700016E06868401E6860012811DA02202070B3
:101B80000EE0401E306031F81030D36231F8101092
:101B9000F9603A684FEA5101516301D184F800803D
:101BA0003C48D9F80010814250D1DAF80410491CA1
:101BB000CAF80410C90700E001E011D046E0002295
:101BC000114600F0D1FD39686FF002000861002174
:101BD0002E4800F001F93968C1F824800120CEE7D1
:101BE00061782D4FB9B32D48012904D002291CD0AA
:101BF00003292BD111E071683B6830F81120DA62BB
:101C000030F81100F8603A6840089063491C716030
:101C100032291BD384F801B018E0A868401EA860E0
:101C2000012813DA0220607010E07168491E7160AB
:101C30003B6830F81120DA6230F81100F8603A6839
:101C40004FEA5000906301D184F80180E868401C9D
:101C5000E860BDE8F09FFFE70022042100F084FD6A
:101C600039686FF0040008610B48FFF783FD042119
:101C7000094800F0B1F83968C1F824800120D2E7A2
:101C8000003401406400002000000020A403002074
:101C90003C010020000C00405C0300206802002092
:101CA00010B5040003D094F83D0010B107E0012006
:101CB00010BD002084F83C00204600F01EF80220F1
:101CC00084F83D00211D206800F008FD012084F803
:101CD000460084F83E0084F83F0084F8400084F811
:101CE000410084F8420084F8430084F8440084F8FA
:101CF000450084F83D00002010BD704710B5044633
:101D0000022249B1042912D008291CD094F84100BC
:101D1000012823D0012010BD94F83E000128F9D1FC
:101D200084F83E202068C26842F0020209E094F87C
:101D30003F000128EED184F83F202068C26842F0BD
:101D40000402C2600EE094F840000128E2D184F859
:101D500040202068C26842F00802F2E784F841207F
:101D60000C292AD00122206800F0FEFC15492068C9
:101D7000154A884201D0904203D1436C43F400439A
:101D80004364206888420DD090420BD0B0F1804F60
:101D900008D00E49884205D00D49884202D00D492D
:101DA000884204D1816801F00701062903D0016847
:101DB00041F001010160002010BD2068C26842F0BE
:101DC0001002BEE7002C0140003401400004004036
:101DD00000080040000C004030B5044600680D00CB
:101DE00006D0042D08D0082D38D00C2D08D139E0AC
:101DF000C16821F0020102E0C16821F00401C16064
:101E000000222946206800F0AFFC1D4B41F2111161
:101E100020688A10984202D01A4B984209D1036A6E
:101E20000B4206D1036A134203D1436C23F40043EF
:101E300043642068036A0B4206D1016A114203D150
:101E4000016821F00101016001207DB1042D10D055
:101E5000082D11D084F84100002030BDC16821F068
:101E60000801CCE7C16821F01001C8E784F83E0002
:101E7000F2E784F83F00EFE784F84000ECE7000069
:101E8000002C01400034014070B5044690F83C003D
:101E90000D4601280AD0012084F83C0042B1042AF2
:101EA00018D0082A2AD00C2A4DD139E0022070BD62
:101EB000206800F079FC2068816941F008018161A7
:101EC0002068816921F004018161206881692A69A3
:101ED000114311E0206800F097FC2068816941F40B
:101EE000006181612068816921F4806181612068DD
:101EF00081692A6941EA0221816124E0206800F0B9
:101F0000B9FC2068C16941F00801C1612068C1695C
:101F100021F00401C1612068C1692A69114311E0FF
:101F2000206800F0DBFC2068C16941F40061C161F8
:101F30002068C16921F48061C1612068C1692A6992
:101F400041EA0221C161002084F83C0070BD10B557
:101F5000040003D094F83D0010B107E0012010BD4B
:101F6000002084F83C00204600F01EF8022084F88F
:101F70003D00211D206800F0B1FB012084F84600DF
:101F800084F83E0084F83F0084F8400084F8410063
:101F900084F8420084F8430084F8440084F8450043
:101FA00084F83D00002010BD7047704710B504460E
:101FB000022249B104290ED0082913D094F8410017
:101FC000012816D0012010BD94F83E000128F9D157
:101FD00084F83E200FE094F83F000128F2D184F805
:101FE0003F2008E094F840000128EBD184F840201D
:101FF00001E084F841200122206800F0B5FB13497C
:102000002068134A884201D0904203D1436C43F4C4
:1020100000434364206888420DD090420BD0B0F159
:10202000804F08D00B49884205D00B49884202D026
:102030000A49884204D1816801F00701062903D0CA
:10204000016841F001010160002010BD002C014039
:10205000003401400004004000080040000C004033
:10206000704770477047000070B5026804461068FA
:10207000D168536910F00F0F53D003F0010501F43C
:1020800090762E435FD0C20705D0CA0503D5E26B18
:1020900042F00102E263420705D5DA0703D0E26BA2
:1020A00042F00202E263820705D5DA0703D0E26B51
:1020B00042F00402E263020707D501F020022A433E
:1020C00003D0E26B42F00802E263E26B002A34D0F4
:1020D000800604D5880602D5204600F060FC206802
:1020E0004069E16BC0F3801001F008010143204614
:1020F00024D000F046FC2068416949061AD54169A0
:1021000021F040014161606BA0B12D494163606BDA
:10211000FEF732FD002810D0606B416BBDE87040C7
:10212000084783060FD58B060DD52046BDE87040C5
:1021300000F035BC2046FFF795FF70BDFFF792FF1A
:102140000020E06370BD03062BD50B0629D594F85B
:1021500039002128F6D1A068B0F5805F01D120694F
:10216000B0B1206A411C2162216800784860E08C8F
:10217000401E0004000CE084E4D12068C16821F016
:102180008001C1602068C16841F04001C16070BD3C
:10219000206A0088C0F308005060206A801C20621A
:1021A000E5E74006F3D54806F1D5D168204621F091
:1021B0004001D160202184F8391000F076F870BD1C
:1021C0007329000870B5040004D094F83900002584
:1021D00010B106E0012070BD84F83850204600F0B0
:1021E00023F8242084F839002068C16821F40051C4
:1021F000C160204600F01AFC2068016921F490417A
:1022000001612068416921F02A0141612068C168AB
:1022100041F40051C160E563202084F8390084F85E
:102220003A00002070BD000030B585B00024009455
:102230000194029403940068184988422CD11848EC
:10224000816941F480418161816901F48041049197
:10225000816941F0040181618069124D00F0040040
:1022600004904FF40070009002200190032003902E
:1022700069462846FEF72AFD2815CDE9000469467F
:1022800028460294FEF722FD002211462520FEF783
:102290008BFE2520FEF77AFE05B030BD00380140E8
:1022A000001002400008014070477047FEE7000040
:1022B0002DE9F04186B00024204800940194029456
:1022C0000394816941F010018161816901F010017D
:1022D0000491816941F004018161816901F0040187
:1022E0000491816941F0200181618069144F00F0FF
:1022F00020000490002207213846FEF7E3FDDFF8B6
:10230000448000221C214046FEF7DCFD0720012509
:102310000226CDE90005CDE9024669463846FEF7BA
:10232000D5FC1C20CDE90005CDE9024669464046B2
:10233000FEF7CCFC06B0BDE8F081000000100240C2
:10234000001001400008014010B58EB00024079431
:10235000089409940A940B941C2168460C94FDF788
:102360002CFF1E481C49016041F6BC31C0E9011434
:10237000C821C0E903148461FFF742F908B1FEF7F0
:10238000FAFB4FF48050079007A91448FFF705FAAD
:1023900008B1FEF7F0FB1148FFF7D9FD08B1FEF7D1
:1023A000EAFB0B940BA90D480C94FFF7EBF808B16E
:1023B000FEF7E1FB6020CDE90004029400226946AB
:1023C00006480494FFF760FD08B1FEF7D4FB03480C
:1023D000FFF702FB0EB010BD00040040CC0200204D
:1023E00010B58EB000240794089409940A940B94B5
:1023F0001C2168460C94FDF7E0FE2348214901604A
:102400000F21C0E901144FF6FF71C0E90314846184
:10241000FFF7F6F808B1FEF7AEFB4FF480500790D7
:1024200007A91948FFF7B9F908B1FEF7A4FB164848
:10243000FFF736FC08B1FEF79EFB0B940BA9124880
:102440000C94FFF79FF808B1FEF795FB3020009041
:102450004FF42F70CDE90104002269460A48049424
:10246000FFF728FB08B1FEF786FB04226946064801
:10247000FFF720FB08B1FEF77EFB0348FFF7ACFA3D
:102480000EB010BD000800401403002010B58EB03F
:1024900000240794089409940A940B941C2168461C
:1024A0000C94FDF78AFE2448224901600F21C0E9FF
:1024B00001144FF6FF71C0E903148461FFF7A0F81F
:1024C00008B1FEF758FB4FF48050079007A91A484F
:1024D000FFF763F908B1FEF74EFB1748FFF7E0FB83
:1024E00008B1FEF748FB0B940BA913480C94FFF7B7
:1024F00049F808B1FEF73FFB3020CDE90004029413
:10250000002269460C480494FFF7D4FA08B1FEF79C
:1025100032FB4FF416700190042269460648FFF71B
:10252000C9FA08B1FEF727FB0348FFF755FA0EB0CA
:1025300010BD0000000C00405C03002010B596B0F8
:1025400000240F9410941194129413941C21684643
:102550001494FDF732FE202107A8FDF72EFE2D482A
:102560002B4901600F21C0E901144FF6FF71C0E94A
:10257000031444618461FFF743F808B1FEF7FBFAE6
:102580004FF480500F900FA92248FFF706F908B1C9
:10259000FEF7F1FA1F48FFF783FB08B1FEF7EBFAED
:1025A000139413A91B481494FEF7ECFF08B1FEF72F
:1025B000E2FA302000904FF41670CDE90104039444
:1025C000049405940022694612480694FFF772FAB3
:1025D00008B1FEF7D0FA042269460E48FFF76AFAFE
:1025E00008B1FEF7C8FA0794089409944FF4005014
:1025F0000A94CDE90B4007A906480E94FEF798FF10
:1026000008B1FEF7B8FA0348FFF7E6F916B010BDB7
:1026100000340140A40300200C4810B50A490160B1
:102620004FF4E1314160002181600C22C160C0E9BA
:1026300004128161C161FFF7C5FD002803D0BDE828
:102640001040FEF798BA10BD00380140EC0300209E
:10265000FEE7704770477047FEF740BC30B58FB05B
:1026600028216846FDF7A9FD14210AA8FDF7A5FD5C
:1026700001210804CDE900100024029402250491F0
:10268000CDE907504FF4E01009906846FEF7AAFD27
:102690000F20CDE90A056802CDE90C4002210AA805
:1026A0000E94FEF7B3FC0FB030BD70470148FFF742
:1026B000E0B80000CC0200200148FFF7DAB80000C3
:1026C000140300200148FFF7D4B800005C03002089
:1026D0000148FFF7CEB80000A4030020F0B502685F
:1026E0001C4B1D4D1D4E1E4F1E4C4FF0804C9842F2
:1026F00009D0A04207D0604505D0A84203D0B0421F
:1027000001D0B84204D122F0700E4A6842EA0E02AB
:10271000984209D0A04207D0604505D0A84203D016
:10272000B04201D0B84203D122F44075CA682A43AE
:102730004D6922F080022A4302608A68C2620A68F8
:102740008262984201D0A04201D10969016301214E
:102750004161F0BD002C0140000400400008004031
:10276000000C00400034014010B501F01F030121AE
:10277000046A99408C430462016A9A4011430162E1
:1027800010BD10B5846842EA032224F47F440A4352
:102790002243826010BD826822F070020A4342F038
:1027A0000701816070470000F0B5026A22F0010263
:1027B0000262036A42688469124E24F073050C6851
:1027C0002C4323F002058B682B430D4DA84201D00A
:1027D000B04205D123F00807CB683B4323F0040344
:1027E000A84201D0B04205D14D6922F44072154390
:1027F0008A692A4342608461496841630362F0BD8B
:10280000002C014000340140F0B5026A22F01002B1
:102810000262026A436884690D6824F4E64444EA6B
:1028200005248D6822F0200242EA05120F4D104E59
:10283000A84201D0B04206D1CF6822F0800242EA1D
:10284000071222F04002A84201D0B04207D14D69E0
:1028500023F4406343EA85038D6943EA85034360BB
:102860008461496881630262F0BD0000002C014070
:1028700000340140F0B5026A22F480720262026AFA
:102880004368C46922F4007224F073050C68124E88
:102890002C438D6842EA05220E4DA84201D0B04279
:1028A00006D1CF6822F4006242EA072222F4806255
:1028B000A84201D0B04207D14D6923F4405343EA06
:1028C00005138D6943EA05134360C4614968C16318
:1028D0000262F0BD002C01400034014030B5026AB4
:1028E00022F480520262046A4268C3690D6823F4CC
:1028F000E64343EA05238D6824F4005444EA053492
:10290000084DA84202D0084DA84204D14D6922F4D6
:10291000804242EA85124260C361496801640462F0
:1029200030BD0000002C01400034014010B5036AA6
:10293000046A24F001040462846924F0F00444EA87
:10294000021423F00A020A438461026210BD10B52A
:10295000036A23F0100303628369046A23F470435B
:1029600043EA023224F0A00343EA011182610162CA
:1029700010BD10B5406A0021C185C184FFF772FB0C
:1029800010BD0168CA6822F49072CA6001684A6981
:1029900022F001024A61202180F83A10704710B5F8
:1029A00090F83A10222901D0022010BD82684FF41D
:1029B00080539A4201D1016921B1816A9A421BD0A8
:1029C0004AB10AE00268816A5268C2F308020A80CA
:1029D000816A891C08E0026972B10268526802F0DB
:1029E0007F020A70816A491C8162C18D491E0904F7
:1029F000090CC18503D016E002685268F1E701684E
:102A0000CA6822F02002CA600168CA6822F4807293
:102A1000CA6001684A6922F001024A61202180F8F7
:102A20003A10FFF741FC002010BD000070B50446CD
:102A300000680169E26821F4405111430161216994
:102A4000A0680843616908432168CA6841F20C63C1
:102A50009A430243CA6020684169A26921F4407127
:102A6000114341611E492068884202D1FEF774FB80
:102A700001E0FEF761FB00EBC00101EB00126068B2
:102A800064218000B2FBF0F3B3FBF1F36FF01806A2
:102A90007343B2FBF0F5B2FBF0F605EB830532238E
:102AA00003EB0515B5FBF1F5B6FBF1F605F0F00506
:102AB00005EB0615B2FBF0F6B2FBF0F0B0FBF1F05F
:102AC0006FF01802504306EB800003EB0010B0FBE0
:102AD000F1F0216800F00F002844886070BD00000C
:102AE000003801400148FFF7BFBA0000EC030020A6
:102AF000FEE7490050EAC12018BF04204A0D18BF64
:102B000040F0010040F2FF72B2EB515F08BF40F0AD
:102B10000200012808BF052070474100080218BFC5
:102B200004200A0E18BF40F001004FF07F4232EA45
:102B3000010108BF40F00200012808BF05207047CE
:102B40000907090E002804DB00F1E02080F80014DA
:102B5000704700F00F0000F1E02080F8141D70476E
:102B60002DE9F0414F1E00EBC7010446D1E90001F9
:102B700015461E4637F006020DD02A463346FDF7AD
:102B8000A2FC7F1E04EBC703D3E90023FDF7F4FB8F
:102B900037F00602F1D1022F25D0042F13D0062FD3
:102BA00018BFBDE8F0812A463346FDF78CFCD4E916
:102BB0000A23FDF7E1FB2A463346FDF784FCD4E9FE
:102BC0000823FDF7D9FB2A463346FDF77CFCD4E900
:102BD0000623FDF7D1FB2A463346FDF774FCD4E902
:102BE0000423FDF7C9FB2A463346FDF76CFCD4E904
:102BF0000223FDF7C1FB2A463346FDF764FCD4E906
:102C00000023BDE8F041FDF7B7BB0122FDF7BFBED1
:102C1000024A00201107FDF7BABE000001FDFFFFC8
:102C20000121FDF79DBB61214FF0E040FDF798BB0E
:102C30006FF05E010807FDF793BB02E008C8121FA2
:102C400008C1002AFAD170477047002001E001C195
:102C5000121F002AFBD1704701490860704700002D
:102C60005000002070B50C464FF400030146984216
:102C700007DB2046FDF736FBFDF742FD00F038F894
:102C80001CE0164A91421DD3154D164E9442204623
:102C90000AD2FDF727FBFDF733FD00F029F82A469D
:102CA0003346FDF769FB09E0FDF71CFBFDF728FD46
:102CB00000F01EF82A463346FDF7FFFBBDE87040E2
:102CC000FDF762BD10F0FF4F02D19C4201DB0648C8
:102CD00070BD9442FCD3054870BD000000008080A8
:102CE0006F1283C0CA210940560EC93F560EC9BF94
:102CF0002DE9F84F04460D4621F00040009173493C
:102D0000814211DC7249884201DC06D12CB1204697
:102D10002946BDE8F84FFFF778BF6E48002DCCBFBD
:102D20006D496E49BDE8F88F6D49814211DD6D49ED
:102D30008142D8BF4FF0FF366DDD20462946FFF7B0
:102D4000D8FE042808BFFFF763FF20462946BDE8E8
:102D5000F88F6549654F25F00045814233DD6449B0
:102D6000814219DD002632464FF080432046294635
:102D7000FDF702FB80468A46012220462946FDF7E0
:102D800006FE00223B46FDF798FB42465346FDF700
:102D90000CFC04460D463EE001260022BA463B46A6
:102DA00020462946FDF7E8FA80460F4600225346A2
:102DB00020462946FDF781FB42463B46FDF7F5FBE1
:102DC00004460D4627E04B4981421BDDDFF828A170
:102DD00002260022534620462946FDF774FB0022B6
:102DE0003B46FDF7C9FA80460F460022534620466F
:102DF0002946FDF762FB42463B46FDF7D6FB0446FB
:102E00000D4608E0032622462B4600203B49FDF7ED
:102E1000CCFB04460D4622462B4610461946FDF7CC
:102E200052FB8B46824602460B46FDF74CFB07469B
:102E30000246334888460B4606217844FFF790FE49
:102E400052465B46FDF73FFB82462E488B463A468C
:102E5000434605217844FFF783FE3A464346FDF793
:102E600032FB02460B46002E504659460CDAFDF75F
:102E700083FA22462B46FDF726FB01B022462B465D
:102E8000BDE8F04FFDF71CBBFDF776FA22462B4656
:102E9000FDF719FB1C4A7A4402EBC603D3E9002371
:102EA000FDF70BFB22462B46FDF707FB174A7A443A
:102EB00002EBC603D3E90023FDF702FB009A002AC8
:102EC000B8BF81F00041BDE8F88F00000000104459
:102ED0000000F07F182D4454FB21F93FFB21F9BF7E
:102EE0000000DC3F0000203E0000F33F0000F03F08
:102EF0000000E63F008003400000F83F0000F0BF04
:102F00002A090000E8080000860800004E080000BA
:102F10002DE9F04104464FF019404E49002500EBE1
:102F2000440088424AD84C492046FDF7A9F9FDF7EC
:102F3000B3FC8046FDF793FD064648494046FDF741
:102F40009FF9074646494046FDF79AF92146FDF7A5
:102F500094F93946FDF78EF904464249FDF790F998
:102F60004149FDF735F92146FDF78AF96FF04141F6
:102F7000FDF72EF92146FDF783F93C49FDF728F9C5
:102F80002146FDF77DF90146394806F003047844EF
:102F900050F82400FDF774F93649794451F82410AB
:102FA000FDF716F93449794451F82410FDF710F96A
:102FB000B11085BBBDE8F041FDF7D2B94FF0FF413C
:102FC00031EA040018D04FF0CE41B1EB440F84BF7A
:102FD0004FF07E50BDE8F0812849B1EB440F28BF87
:102FE0000125A0D20220FFF737FE14F0004F0ED0CB
:102FF000BDE8F041FFF71CBE204614F5000F04BFEA
:103000000020BDE8F081BDE8F041FFF709BEBDE852
:10301000F041FFF708BEFDF7A3F904000BD0B4F1AF
:10302000FF4F0FD0FFF779FD042808BFFFF700FE20
:103030002046BDE8F0810220FFF70EFEBDE8F0411A
:10304000FFF7F6BD0220FFF707FEBDE8F041FFF7EE
:10305000EABD00000000501E3BAAB840F4FD053751
:103060000070313E12BB2A3D12BB2A3EFFFF7F3F5C
:10307000260800000A080000EE0700000000A085F6
:10308000A2B0FDF733FFFFF7E9FAFFF711F9FFF7F9
:10309000A7F9FFF7FBF9FFF751FAFFF755F9FFF72B
:1030A000BBFA3D22984910A8FDF76EF8964C14F82B
:1030B0003D0F8DF87D0060788DF87E00A0788DF84A
:1030C0007F00E0788DF8800020798DF881006079AC
:1030D0008DF88200A0798DF88300E0798DF8840066
:1030E000207A8DF88500607A8DF886000A20002508
:1030F000CDE90E50382214A96846FDF745F80DF1C8
:10310000400C9CE80F0000F0D5FA4FF47A7A504654
:10311000FDF7CAFDDFF8F4B1002204215846FDF79F
:10312000D1FE7B497B4800F00BF94FF081467A4F86
:10313000DFF8E8817A49CDE900563B464246A1F1E5
:10314000C800FDF7B9FC7749CDE900563B46424639
:10315000A1F1C800FDF7B0FC7348FEF7D9FA734837
:10316000FEF7D6FA00217048FEF7C8FD04216F482B
:10317000FEF7C4FD40F6B830FDF796FD3D226249EA
:1031800010A8FDF701F820788DF87D0060788DF8A3
:103190007E00A0788DF87F00E0788DF8800020799F
:1031A0008DF8810060798DF88200A0798DF8830018
:1031B000E0798DF88400207A8DF88500607A8DF8AA
:1031C00086001920CDE90E50382214A968463D3CEE
:1031D000FCF7DAFF0DF1400C9CE80F0000F06AFAF2
:1031E0006420FDF761FDDFF84891D9F8000001285F
:1031F00026D15048014600F0A3F84949CDE90056D0
:103200003B464246A1F1C800FDF756FC4549CDE9D1
:1032100000563B464246A1F1C800FDF74DFC42482E
:10322000FEF776FA4148FEF773FA00213E48FEF7B2
:1032300065FD04213D48FEF761FD5046FDF734FD74
:103240004FF44870FDF730FD3D222F4910A8FCF7E0
:103250009BFF14F83D0F8DF87D0060788DF87E009F
:10326000A0788DF87F00E0788DF8800020798DF8C7
:10327000810060798DF88200A0798DF88300E07973
:103280008DF88400207A8DF88500607A8DF88600AC
:103290000F20CDE90E50382214A96846FCF774FFC0
:1032A0000DF1400C9CE80F0000F004FA5046FDF7C9
:1032B000FBFCD9F80000012825D11F491F4800F068
:1032C0003FF81749CDE900563B4644464246A1F136
:1032D000C800FDF7F1FB1349CDE900563B462246F5
:1032E000A1F1C800FDF7E8FB0F48FEF711FA012233
:1032F00004215846FDF7E6FD00210B48FEF7FEFCD1
:103300005046FDF7D1FCFEE7CC020020000801404A
:10331000000070420000F04200803B45000048423F
:103320003C01002068020020A40300205C03002070
:103330000C0000200000C842000020410000F041C5
:103340002DE9F05F884CDFF81CB2884DA368E3617B
:10335000E368874E236200F019F9E169A068FDF780
:1033600039FAE169A06823D2FCF784FF606220F09B
:103370000040FDF7C5F900225B46FDF7A4F82A4698
:103380003346FDF712F900227A4BFDF70EF90022C1
:10339000794BFDF798F80022784BFDF794F800225E
:1033A000774BFDF702F9FDF78CF90022606127E009
:1033B000FDF706FA28D2E169A068FCF75BFF6062BE
:1033C00020F00040FDF79CF900225B46FDF77BF8FA
:1033D0002A463346FDF7E9F80022664BFDF7E5F88B
:1033E0000022654BFDF76FF80022644BFDF76BF888
:1033F0000022634BFDF7D9F8FDF763F90122606104
:1034000008216048FDF75EFD2169606AFCF7E0FE77
:103410005D49E062884200DAE162E068FDF770F938
:103420002A46B0463346FDF74BF806460F46E06A9B
:10343000FDF766F932463B46FDF78EF93CD2E06A6D
:10344000FDF75EF906460F46E068FDF759F9A94613
:103450002A464346FDF734F88A46054632463B463F
:10346000FDF72BF8FDF790F90646A0622846514675
:10347000FDF78AF9206126F00040FDF741F90022AE
:103480005B46FDF720F84A464346FDF78EF80022DA
:10349000384BFDF78AF80022374BFDF714F800226D
:1034A000364BFDF710F80022354BFDF77EF8FDF79F
:1034B00008F90122A0614CE0E068FDF721F92A46F5
:1034C0004346FCF7FDFF06460F46E06AFDF718F994
:1034D00032463B46FDF728F941D2E06AFDF710F984
:1034E00006460F46E068FDF70BF9A9462A46434613
:1034F000FCF7E6FF8A46054632463B46FCF7DDFF11
:10350000FDF742F90646A06228465146FDF73CF910
:10351000206126F00040FDF7F3F800225B46FCF73F
:10352000D2FF4A464346FDF740F80022114BFDF713
:103530003CF80022104BFCF7C6FF00220F4BFCF7B3
:10354000C2FF00220E4BFDF730F8FDF7BAF800225B
:10355000A061BDE8F05F10210A48FDF7B3BCBDE8EB
:10356000F09F000000806640100000206F1283C0B2
:10357000CA210940008076400000994000004F4079
:1035800000003440000801408F09063F2DE9F05F3C
:1035900083468A460846FCF773FE044659460846A9
:1035A000FCF76EFE2146FCF713FE8146FDF7A8F8F6
:1035B00000F05AF8FDF7E8F82A4C07460121206888
:1035C0008046FCF7CDFE61680E46FCF759FE0546C5
:1035D00031460846FCF754FE064641460846FCF7CD
:1035E0004FFE01464846FCF745FE3146FCF742FED9
:1035F0002946FCF777FE06460146FCF741FE4FF0F0
:103600007E51FCF73AFEFDF77BF800F02DF8FDF750
:10361000BBF8054601463046FFF724FBE060514603
:103620005846FFF71FFB8046606829468146FCF735
:1036300027FE3946FCF756FE054631464846FCF75C
:103640001FFE2168FCF7C4FD3946FCF74BFE2946F6
:10365000FFF708FB01464046FCF70CFEA060BDE802
:10366000F09F0000100000202DE9F04106460F46B3
:10367000FDF7A4F9041E0D4618BF0120284320F0D1
:103680000040C0F17F6000F1E040C00F0ED0301C60
:1036900018BF0120384320F00040C0F17F6000F1E6
:1036A000E040C00F04BF0120FFF7D6FA20462946AC
:1036B000BDE8F0810FB470B504A8DDE916542946C1
:1036C000FEF774FC45B1042D09D00498082D09D0EB
:1036D000046470BC5DF814FB04984463F9E7049833
:1036E0008463F6E7C463F4E7000000000000000014
:1036F0000102030406070809000000000102030498
:103700004FBB610567ACDD3F182D4454FB21E93FF9
:103710009BF681D20B73EF3F182D4454FB21F93FE8
:10372000E2652F227F2B7A3C075C143326A6813C6E
:10373000BDCBF07A8807703C075C143326A6913C19
:10374000C4EB98999999C9BF711623FEC671BCBF85
:103750006D9A74AFF2B0B3BF9AFDDE522DDEADBFED
:103760002F6C6A2C44B4A2BF0D5555555555D53F05
:10377000FF8300922449C23F6E204CC5CD45B73F20
:10378000513DD0A0660DB13FEB0D76244B7BA93F98
:1037900011DA22E33AAD903F0000803F0030983FBD
:1037A0000000B53F0040D73F00000000320A7E39DC
:1037B0007F661E395B991F390000803FF037983FC4
:1037C000F304B53FFD44D73FE83700080000002070
:1037D000540000003A2C00083C3800085400002037
:1037E000DC0700004A2C0008010101010000000074
:1037F00000000000000000000000C8420000C842B5
:103800008F0986BFCA7A27408F09063F0000000053
:1038100000000000000000000000000000000000A8
:103820000000000000000000010000001000000087
:0C383000000000000024F4000000000074
:0400000508000131BD
:00000001FF
