:020000040800F2
:1000000008090020450100086B2300087D1F000837
:1000100069230008910A0008AF26000800000000CC
:100020000000000000000000000000006F23000836
:100030005D0B0008000000006D230008712300081C
:100040005F0100085F0100085F0100085F01000810
:100050005F0100085F0100085F0100085F01000800
:100060005F0100085F0100085F0100085F010008F0
:100070005F0100085F0100085F0100085F010008E0
:100080005F0100085F0100085F0100085F010008D0
:100090005F0100085F0100085F0100085F010008C0
:1000A000C5230008E9230008DD230008D123000848
:1000B000F5230008012400080D2400085F01000852
:1000C0005F0100085F0100085F0100085F01000890
:1000D0005F0100085F0100085F0100085F01000880
:1000E0005F0100085F0100085F0100085F01000870
:1000F0005F0100085F0100085F0100085F01000860
:100100005F0100085F0100085F0100085F0100084F
:100110005F0100085F0100085F0100085F0100083F
:100120005F0100085F0100085F0100085F0100082F
:10013000DFF80CD000F09AFC00480047412C000882
:10014000080900200648804706480047FEE7FEE70A
:10015000FEE7FEE7FEE7FEE7FEE7FEE7FEE7FEE777
:10016000C323000831010008202A04DB203A21FAC9
:1001700002F00021704721FA02F3D040C2F12002C0
:100180009140084319467047D2B201E000F8012BB4
:10019000491EFBD270470022F6E710B513460A4607
:1001A00004461946FFF7F0FF204610BDF0B480EA80
:1001B0000102D40F4200B2EB410F02D202460846C0
:1001C00011464A0042D0C30DDDB2C1F3C752AD1A89
:1001D000202D35DAC1F3160141F4000204B1524278
:1001E000C5F1200602FA06F12A411044B3EBD05FB4
:1001F00023D0C4B1012DA0EBC35009DCF0BC4FF0FB
:10020000004202EAC352DBB200F5000000F004BB7A
:10021000400000F1807000EBC350A0F1807040EA14
:10022000D170490009E0490841EAC071A0EBC35010
:1002300000F50000400800EBC350F0BC00F0E3BA4A
:100240006142012202EB4101001BF6E7F0BC70475E
:1002500081F00041AAE780F00040A7E780EA0102B0
:1002600010B502F00043400022D04A001FD0010E1A
:1002700001EB1261C0F35600C2F3560240F40000D5
:1002800042F40002A0FB022000047F39140400D0D5
:10029000401C50EA124001D44000491EC2B20C0674
:1002A00004EBD010401C4008802A02D003E000205C
:1002B00010BD20F00100002900DA0020184310BD15
:1002C00030B480EA010202F0004530F0004221F033
:1002D000004013D090B1C30DD40DC2F31601C0F38A
:1002E0001600E41A41F4000140F400027D3491420A
:1002F00001D3641C00E04900002C02DA30BC00206D
:1003000070474FF400000023914201D3891A034340
:1003100040084FEA4101F7D151B1914202D14FF06B
:10032000004105E002D24FF0010101E06FF0010150
:1003300003EBC450284430BC00F065BA420005D03D
:10034000C0F3C7525242914201DC0020704700EBDB
:10035000C15070472DE9FE4F804681EA0300C00F6F
:100360000C46009021F0004123F00045B8EB02005C
:10037000A94105D24046214690461C460B460246FE
:1003800023F00040104347D0270DC7F30A00C3F302
:100390000A510290401A019040286BDAC3F313000F
:1003A00040F4801B0098924620B10023D2EB030A50
:1003B00063EB0B0B01985946C0F14002504600F028
:1003C00001FA06460D4650465946019A00F009FAD0
:1003D00010EB08006141002487EA115284EAE773B8
:1003E0001A4340D0009A62B3019A012A4FEA075299
:1003F00015DC001B61EB02014FF0004202EA0752DC
:10040000CDE90042001C41F5801132462B4600F038
:100410005EFA03B0BDE8F08F40462146F9E7001BC5
:1004200061EB0201001C41F5801300185B412018AC
:10043000A2F5001747EB030140EAD570B6196D41EC
:1004400011E06D084FEA360645EAC0754FEA0752DB
:10045000001B61EB0201001C41F5801149084FEAC5
:1004600030000019514132462B4603B0BDE8F04F31
:1004700000F01EBA0098012240000023D0EB0202D7
:1004800063EBE073009821464FEAE074B8EB00009C
:1004900061EB0401E9E783F000435BE781F0004191
:1004A00058E72DE9FE4F81EA030404F0004421F0EF
:1004B000004100944FF0000B23F0004350EA010488
:1004C0005ED052EA03045BD0C3F30A54C1F30A5569
:1004D0002C44A4F2F3340194A0FB0254C1F31301A1
:1004E00041F48011C3F3130343F4801301FB02446E
:1004F00000FB034E840A970A44EA815447EA835773
:10050000A4FB076802958D0A05FB07854FEA932C2B
:1005100004FB0C542705029D4FEA065847EA16379C
:10052000B5EB08056EEB070C870E920E47EA8117B4
:1005300042EA8312A7FB0201B6EB0B0164EB000455
:100540002B0D43EA0C335E1844EB1C50DA4651463F
:10055000E7FB0201C5F313044FEA0B3343EA1453DC
:100560004FEA0432019C43EA0603A4F10C0402940E
:10057000009CCDE900B400F0AAF903B0BDE8F08F0B
:1005800000200146F9E72DE9F04D81EA030404F06B
:10059000004B21F0004514464FF0000A23F00041C3
:1005A00050EA050220D054EA01021DD0C5F30A57D3
:1005B0000246C5F31303C1F31300C1F30A5640F416
:1005C000801543F48013A7EB0608101BD64608F2EB
:1005D000FD3873EB050002D308F1010801E0921821
:1005E0005B41B8F1000F03DA00200146BDE8F08D51
:1005F00000204FF48011064684460EE0171B73EB73
:10060000050705D3121B63EB050306434CEA010CF7
:1006100049084FEA300092185B4150EA0107EDD1DA
:1006200052EA030012D082EA040083EA050108437B
:1006300005D0101BAB4106D20122002306E00022A8
:100640004FF0004302E06FF0010253101AEB060076
:100650004CEB085110EB0A0041EB0B01BDE8F04DEB
:1006600000F026B9C10F80EAE0700844CA0796235B
:10067000002100F0D1B820F00040C10DC0F31600F9
:1006800040F400007F2901DA00207047962903DC3E
:10069000C1F19601C840704796398840704770B5DF
:1006A000C1F30A5201F000450024C1F3130140F2E6
:1006B000FF3341F480119A4201DA002070BD40F20C
:1006C00033439A42A2F2334203DC5242FFF74CFD1D
:1006D00000E090402C43F1D0404270BD00F0004259
:1006E00030F000400AD0C10D01F56071C0F3160072
:1006F00042EA0151C20840071143704700200146F9
:100700007047000030B5041E71F1000404DB4FF0A7
:100710000044404264EB0101141E73F1000405DB48
:100720001C464FF00043524263EB04038B4208BF68
:10073000824230BD30B5041E71F1000404DB4FF07D
:100740000044404264EB0101141E73F1000405DB18
:100750001C464FF00043524263EB0403994208BF2A
:10076000904230BD01F0004330B421F0004150EA26
:10077000010206D00A0DA2F56072C1F31301002A2E
:1007800002DC30BC00207047440F44EAC104C100C1
:10079000E01830BC00EBC25000F035B8002801DB97
:1007A000C0F10040002901DBC1F1004181427047E6
:1007B000002801DBC0F10040002901DBC1F100414C
:1007C00088427047202A04DB203A00FA02F1002018
:1007D00070479140C2F1200320FA03F3194390407F
:1007E0007047202A06DBCB17203A41FA02F043EA91
:1007F000E07306E041FA02F3D040C2F120029140DA
:100800000843194670470029A8BF7047401C49009B
:1008100008BF20F00100704710B4B0FA80FC00FA65
:100820000CF050EA010404BF10BC704749B1CCF190
:10083000200421FA04F411FA0CF118BF012121431C
:100840000843A3EB0C01CB1D4FEA00614FEA1020D7
:1008500042BF002010BC704700EBC3501044002979
:10086000A4BF10BC7047401C490008BF20F0010025
:1008700010BC704710B541000CD0C0F3C751962989
:1008800008DC7E2909DC06DB410204D000F00040D0
:1008900040F07E5010BD002010BDC1F19604C4F19F
:1008A000200100FA01F1E040FFF7ADFFA04010BDCC
:1008B00010B5141E73F1000408DA401C41F1000168
:1008C00092185B411A4301D120F0010010BD2DE9BF
:1008D000F04D92469B4611B1B1FA81F202E0B0FAB6
:1008E00080F220329046FFF76DFF04460F4640EA43
:1008F0000A0041EA0B0153465A46084313D01146F9
:1009000053EA010019D0C8F140025046FFF72CFC11
:1009100005460E46504659464246FFF753FF0843E8
:1009200005D0012004E020463946BDE8F08D0020C6
:10093000054346EAE0762C4337430A986305E40A08
:10094000A0EB08000022FD0A44EA47540A3002D511
:1009500000200146E9E7010510196941DDE9084574
:1009600000196941BDE8F04DA2E770B521F00043E0
:1009700003430CD0C1F30A550024D5EB040564EB06
:100980000403D617AD1AB34102DB0020014670BD47
:10099000201841EB025170BD2DE9F04D00231A469D
:1009A0001B1A8A4103DB00200146BDE8F08DC1F32C
:1009B0000A52C1F3130141F480154FF0000BD10727
:1009C00002D100186D41521E0027044640F2FF116B
:1009D000384601EB620A3E468046024600204FF44C
:1009E0008011FFF7C1FBC2197141BB1846EB010032
:1009F000B4EB030C75EB000C04D3E41A65EB0005B3
:100A000017460E46241908F101006D41804634282E
:100A1000E3DDF91946EB0600091BA84103D24FF0AC
:100A2000FF32134601E0002213461BEB070046EBA2
:100A30000A51BDE8F04DFFF73BBF00F0004220F047
:100A40000040C10DC0F3160040F400007F2901DA18
:100A500000207047962903DCC1F19601C84001E0EF
:100A600096398840002AF4D040427047064C074D22
:100A700006E0E06840F0010394E80700984710346E
:100A8000AC42F6D3FFF758FBB0310008D031000874
:100A9000FEE700002DE9F05F81462A488846DDF830
:100AA0002CB0016828486439924601602749002427
:100AB00009686439416026490968643981601846CB
:100AC0000A99FFF7C5FB074631E000BF4FF0FF3141
:100AD0005046FFF733FC054629463046FFF7B8FB82
:100AE0005946FFF7BBFB2946FFF7EAFB80F00040C1
:100AF00001F0EEFF4FF07E552946FFF757FB014608
:100B00002846FFF7DDFB01463846FFF7A7FB0A99A9
:100B1000FFF74CFB49F824000E4850F824100E480B
:100B2000FFF7CEFBFFF7A7FD28F81400641C204652
:100B3000FFF798FD06465146FFF730FEC6D3BDE8E5
:100B4000F09F00002400002000000020280000206A
:100B5000400000207C0000204054894A70477047C4
:100B600070B5044600F010F90546601C02D0044838
:100B70000078044400F008F9401BA042FAD370BD8D
:100B8000480000202DE9F84FDFF8C891002409F152
:100B9000040A0AF1040B23460F270BF1040ED1E0DF
:100BA0000125A54006EA0502AA4276D1DFF8A8C1D0
:100BB0004E68A6EB0C0866452BD00DDC032E34D016
:100BC00005DC36B3012E19D0022E2FD11BE0112ED9
:100BD00016D0122E2AD119E0B8F5881F19D006DCDC
:100BE000B8F5803F15D0B8F5801F1FD111E0B8F5DA
:100BF000001F0ED0B8F5041F18D10AE0CB6815E02D
:100C0000CB681B1D12E0CB6808330FE0CB680C33B8
:100C10000CE08B682BB1012B4FF0080303D045612A
:100C200004E0042302E0056100E00023FF2A01D86C
:100C3000064601E000F104064FEA840501D9A5F15A
:100C40002005D6F8008007FA05FC28EA0C0803FA0C
:100C500005F548EA0508C6F800804D68ED0070D536
:100C60003E4DAE6946F00106AE61AD6924F0030663
:100C700005F0010500953A4D06EB050CDCF808502F
:100C8000A607360F07FA06F825EA0805DFF8D4802C
:100C9000404503D14FF0000825E052E0DFF8C8805E
:100CA000404502D14FF001081DE0DFF8C08040450B
:100CB00002D14FF0020816E0DFF8B480404502D1BF
:100CC0004FF003080FE0DFF8AC80404502D14FF051
:100CD000040808E0DFF8A080404502D14FF0050885
:100CE00001E04FF0060808FA06F848EA0508CCF8D3
:100CF00008804D68D9F80060ED034D4601D51643D4
:100D000000E096432E604D68DAF80060AD0355466A
:100D100001D5164300E096432E604D68DBF8006075
:100D2000ED025D4601D5164300E096432E604D6806
:100D3000DEF80060AD02754601D5164300E096432B
:100D40002E60641C0A681646E2407FF429AFBDE8B5
:100D5000F88F000000040140000011100010024054
:100D60000000014000080140000C0140001001405B
:100D70000014014000180140001C01400AB101614B
:100D800070470904FBE700000148806870470000D5
:100D90004800002002488168027811448160704751
:100DA00048000020074810B5016841F010010160BB
:100DB000032000F075F8002000F006F800F024F899
:100DC000002010BD0020024070B50D4D04464FF4C8
:100DD0007A712878B1FBF0F00A490968B1FBF0F0AC
:100DE00000F0CCFA48B9102C07D200222146501E40
:100DF00000F036F800206C6070BD012070BD00006E
:100E000048000020540000200C4808B5816941F0DA
:100E100001018161816901F001010091C16941F025
:100E20008051C161C06900F0805000900448416861
:100E300021F0E06141F00071416008BD0010024006
:100E400000000140002809DB00F01F020121914051
:100E50004009800000F1E020C0F800117047000058
:100E6000F0B40E4B1B680C46C3F30223C3F1070515
:100E7000042D00D90425191D072901D2002300E003
:100E8000DB1E012606FA05F1491E214099409E40CD
:100E9000761E16403143F0BC01F031BC0CED00E091
:100EA000064900F0070208684FF6FF03184040EAC1
:100EB0000220034A10430860704700000CED00E078
:100EC0000000FA052DE9F0470F46050061D0434EBA
:100ED000306800F00700B84209D2306820F00700FF
:100EE00038433060306800F00700B84251D12868BC
:100EF0003B4C810712D5400703D5606840F4E060A1
:100F000060602878000703D5606840F46050606036
:100F10006068A96820F0F000084360602878C00786
:100F200028D06868012810D02168022810D08907CD
:100F300000292EDA616821F0030101436160FFF7A7
:100F400023FF804641F288390DE021688903EFE7ED
:100F50008901EDE7FFF718FFA0EB0801494502D929
:100F60000320BDE8F0876068696800F00C00B0EB12
:100F7000810FEFD1306800F00700B8420BD930681C
:100F800020F0070038433060306800F00700B842B6
:100F900001D00120E5E72878400705D56068E968B9
:100FA00020F4E060084360602878000706D5606898
:100FB000296920F4605040EAC100606000F018F830
:100FC0006168084AC1F30311515CC84006490860D2
:100FD00006480068FFF7F8FE0020C2E70020024044
:100FE00000100240D8300008540000204C000020BF
:100FF00012A185B00FC98DE80F0014A0144A006833
:1010000004905168134801F00C03042B10D0082BF6
:101010000ED1C1F38343C9031DF803000AD55168FB
:1010200004AAC1F34041515C0A4A5043B0FBF1F0BD
:1010300005B0704708494843FAE700000203040579
:10104000060708090A0B0C0D0E0F10100102000014
:101050000010024000127A0000093D002DE9F84F0F
:10106000040070D02078C04DC00749D06868C0F334
:101070008100012807D06868C0F38100022809D1E7
:101080006868C00306D52868800339D560680028E1
:10109000E7D035E06068B0F5803F0BD010B1B0F517
:1010A000A02F11D0286820F480302860286820F410
:1010B000802002E0286840F480302860606890B1A9
:1010C000FFF762FE06460AE0286840F480202860A8
:1010D000F0E700BFFFF758FE801B642873D828682C
:1010E0008003F7D50CE0FFF74FFE064605E000BF92
:1010F000FFF74AFE801B6428F0D828688003F7D4E5
:1011000020789A4E80074FF001094FF0000839D53A
:10111000686810F00C0F07D06868C0F381000228DF
:1011200009D16868C00306D42868800714D52069EF
:10113000012808D110E02069B0B1C6F80090FFF78F
:1011400023FE074605E00AE1FFF71EFEC01B02284A
:10115000C4D828688007F7D52868616920F0F800AE
:1011600040EAC10028600DE0C6F80080FFF70CFEE1
:10117000074604E0FFF708FEC01B022823D82868B2
:101180008007F7D4207800072CD57948A169D9B118
:10119000C0F80090FFF7F8FD074604E0FFF7F4FD04
:1011A000C01B02280FD8686A8007F7D571484FF432
:1011B000FA510068B0FBF1F0009000BF0098411EAA
:1011C0000091FAD20EE080E0C0F80080FFF7DCFD6D
:1011D000074604E0FFF7D8FDC01B022875D8686AEF
:1011E0008007F7D42078400760D5E8690027C00061
:1011F00008D4E86940F08050E861E869012700F010
:10120000805000905C480168C90513D4016883468A
:1012100041F480710160FFF7B7FD824606E000BF30
:10122000FFF7B2FDA0EB0A0064284ED8DBF80000FF
:10123000C005F5D5E06801280AD008B1052813D00B
:10124000286A20F001002862286A20F0040002E0E9
:10125000286A40F001002862E06841F2883B98B1BA
:10126000FFF792FD82460BE0286A40F004002862F6
:10127000EEE700BFFFF788FDA0EB0A0159455AD8F9
:10128000286A8007F6D50CE0FFF77EFD824605E070
:10129000FFF77AFDA0EB0A0159454CD8286A800770
:1012A000F6D41FB1E86920F08050E861E06988B3A6
:1012B0006968C1F38101022944D00228C6F8608020
:1012C00004D0FFF761FD044638E034E0FFF75CFD31
:1012D000074604E0FFF758FDC01B02282BD82868FA
:1012E0008001F7D4206AB0F5803F05D16868A16815
:1012F00020F4003008436860D4E9080108436968B5
:1013000021F4741108436860C6F86090FFF73CFD53
:10131000044606E025E000BFFFF736FD001B02286B
:1013200009D828688001F7D51BE000BFFFF72CFD26
:10133000001B022802D90320BDE8F88F286880012D
:10134000F4D40EE00128F7D06868226A00F48031F6
:10135000914204D1616A00F47010884201D00120EA
:10136000EAE70020E8E700000010024000004242E7
:1013700080044242540000200070004010B5401E1E
:10138000B0F1807F01D3012010BD4FF0E0246061F7
:101390000F21601701F0B3F90020A0610720206140
:1013A000002010BD7047704710B590F83C20012A0E
:1013B00022D0012280F83C20CA688C6822F4407256
:1013C00022434C6822F4806222430C6822F40062BB
:1013D00022430C6922F4805222434C6922F40052C9
:1013E0002243C969002322F480420A4301684A6407
:1013F00080F83C30002010BD022010BD70B590F880
:101400003C20012A2CD0012480F83C40022280F8A4
:101410003D2003685A689D6822F070060A683243CE
:101420005A60104B02689A420ED00F4B9A420BD072
:10143000B2F1804F08D00D4B9A4205D00C4B9A4226
:1014400002D00C4B9A4204D1496825F0800319431D
:10145000916080F83D40002180F83C10084670BD46
:10146000022070BD002C0140003401400004004007
:1014700000080040000C004010B5040003D094F8B0
:101480003D0010B107E0012010BD002084F83C00B1
:10149000204600F01FF8022084F83D00211D20683E
:1014A00000F0BAFF012084F8460084F83E0084F87A
:1014B0003F0084F8400084F8410084F8420084F83A
:1014C000430084F8440084F8450084F83D0000207F
:1014D00010BD000008B5384A01683848914226D14D
:1014E000816941F4006181618069002200F400603B
:1014F000009011461820FFF7B3FC1820FFF7A2FC5C
:10150000002211461920FFF7ABFC1920FFF79AFCC7
:10151000002211461A20FFF7A3FC1A20FFF792FCC5
:10152000002211461B20FFF79BFC1B2034E0B1F189
:10153000804F11D0224A91421DD1C16941F0020170
:10154000C161C069002200F00200009011461D2018
:10155000FFF786FC1D201FE0C16941F00101C16158
:10156000C069002200F00100009011461C20FFF726
:1015700077FC1C2010E0134A914211D1C16941F05F
:101580000401C161C069002200F00400009011460E
:101590001E20FFF765FC1E20BDE80840FFF752BC87
:1015A000094A914207D1C16941F00801C161C0698E
:1015B00000F00800009008BD002C0140001002401F
:1015C0000004004000080040000C004090F83D106E
:1015D000012901D001207047022180F83D100068E8
:1015E0000E4988420ED00E4988420BD0B0F1804F90
:1015F00008D00C49884205D00B49884202D00B49DB
:10160000884204D1816801F00701062903D00168EE
:1016100041F001010160002070470000002C0140F2
:10162000003401400004004000080040000C00406D
:1016300001680A6A41F211131A4207D10A6A9B1023
:101640001A4203D10A6822F001020A60012180F8DF
:101650003D100020704770B5044690F83C0001280A
:1016600017D0012584F83C50022084F83D00206802
:10167000826822F0770222F47F4282600868502854
:1016800030D00DDC20284DD005DC98B310283BD19C
:1016900048E0022070BD302844D0402834D139E0E1
:1016A000602828D0702806D0B0F5805F2CD0B0F527
:1016B000005F29D10AE0CB68D1E90121206800F060
:1016C000FEFE2068816841F0770109E0CB68D1E92E
:1016D0000121206800F0F3FE2068816841F4804118
:1016E000816011E0CA684968206800F0BDFF5021A0
:1016F000206807E016E0CA684968206800F0C5FF66
:101700006021206800F0E5FE84F83D50002084F858
:101710003C0070BDCA684968206800F0A5FF402100
:101720002068EFE7226801461046EBE7704770B586
:101730000446006801694FF00005C943890715D4C4
:10174000C168C943890711D4E91E016101202077CE
:10175000206880698007204602D0FFF7E7FF04E099
:1017600000F048F9204600F006FC25772068016962
:10177000C943490717D4C168C943490713D46FF057
:1017800004010161022020772068806910F4407F05
:10179000204602D0FFF7CAFF04E000F02BF92046F4
:1017A00000F0E9FB257720680169C943090716D4D1
:1017B000C168C943090712D46FF008010161042010
:1017C00020772068C0698007204602D0FFF7AEFF6F
:1017D00004E000F00FF9204600F0CDFB25772068EB
:1017E0000169C943C90617D4C168C943C90613D4DE
:1017F0006FF010010161082020772068C06910F4A3
:10180000407F204602D0FFF791FF04E000F0F2F89D
:10181000204600F0B0FB257720680169C943C9075D
:1018200008D1C168C943C90704D1891E0161204696
:1018300000F0A2FB20680169C943090609D4C16808
:10184000C943090605D46FF0800101612046FFF706
:10185000A9FD20680169C943490609D4C168C94383
:10186000490605D46FF040010161204600F085FB78
:1018700020680169C94389060BD4C168C943890638
:1018800007D46FF0200101612046BDE87040FFF7EA
:101890008ABD70BD70B586B00021009101910291A2
:1018A00003913949374C03688D1502223748A3420A
:1018B0000BD18B6943F004038B618969CDE9005238
:1018C00001F00401CDE903215AE0314CB3F1804F1E
:1018D0001CD0304EB34231D1886940F0100088618D
:1018E0008869694600F0100004904020CDE90002AC
:1018F00029480392FFF746F9606820F4406040F001
:10190000E06040F44060606006B070BD8B6943F0F9
:1019100004038B618969039201F0040104914FF47F
:101920000041CDE900126946FFF72CF9606820F408
:10193000407040F0E06040F48070E4E7174CA34250
:101940000FD1886940F0080088618869CDE90052AC
:1019500000F00800CDE9032069461148FFF712F9AD
:10196000D2E7104CA342CFD18B6943F004038B61C3
:101970008969039201F0040104910121CDE900126B
:101980006946EBE7002C01400010024000080140CE
:101990000000014000040040001001400008004029
:1019A000000C0140000C004010B5044690F83C00CB
:1019B00001280AD0012084F83C0042B1042A0AD050
:1019C000082A0CD00C2A11D10DE0022010BD20688D
:1019D00000F088FD0AE0206800F0B4FD06E0206811
:1019E00000F0E6FD02E0206800F016FE002084F81A
:1019F0003C0010BD2DE9F05F074600688F49DFF815
:101A000044A2DFF844B2DFF838820026AAF11005BC
:101A10000BF10C04884243D18C480660DAF80010C0
:101A2000491CCAF80010C8073AD12278DFF8209282
:101A3000F2B34846012A01682846006804D0022A09
:101A40001ED0032A2CD112E038F810C0C1F82CC0E7
:101A500038F81010C9F80C10D9F800204908516363
:101A6000401C286032281BD30320207018E0DBF8CC
:101A70000000401ECBF80000012811DA0220F4E734
:101A8000401E286038F81030CB6238F81010C9F8C2
:101A90000C10D9F800204FEA5101516300D1267093
:101AA00038684FF0804398425DD1DAF8041000E0C6
:101AB00018E0491CCAF80410C80771D16078DFF833
:101AC0009491D8B36449012822D0022837D0032842
:101AD00066D1DBF80400401ECBF80400012842DA8E
:101AE000022029E0002211465C4800F0DBFCD9F816
:101AF00000106FF0020008615548FFF799FD0021C2
:101B0000534800F04FF9D9F8000046620120ACE7D5
:101B10006868D9F800C031F81030CCF82C3031F8B2
:101B20001010C9F80C10D9F8002049085163401C66
:101B30006860322817D30320607014E032E06868D0
:101B4000401E6860D9F800C031F81030CCF82C3055
:101B500031F81010C9F80C10D9F800204FEA5101E3
:101B6000516300D166703E483968814218D1DAF875
:101B70000810491CCAF80810C90711D1A178394FBB
:101B8000B9B3012924D0022934D0032908D1DBF8C4
:101B90000800401ECBF80800012801DA0220A070DE
:101BA000BDE8F09F00221146184600F07BFC2E494C
:101BB0006FF00200096808612648FFF739FD00212F
:101BC000244800F0EFF8D9F8000046620120B3E79E
:101BD000A8683B6838F81020DA6238F81010F9600D
:101BE0003A684908D163401CA8603228D8D3032042
:101BF000D5E710E0A968491EA9603B6838F81120B4
:101C0000DA6238F81100F8603A684FEA5000D063A1
:101C1000C6D1A670C4E70022082100F043FC396851
:101C20006FF0080008610F48FFF702FD08210D481A
:101C300000F0B8F8386846620120B0E7002C014097
:101C4000440100206C00002000000020440000201F
:101C50009C030020E40300207002002000340140B7
:101C60000008004074040020BC04002010B50400EB
:101C700003D094F83D0010B107E0012010BD002012
:101C800084F83C00204600F01EF8022084F83D0055
:101C9000211D206800F0C0FB012084F8460084F874
:101CA0003E0084F83F0084F8400084F8410084F846
:101CB000420084F8430084F8440084F8450084F826
:101CC0003D00002010BD704710B50446022249B106
:101CD000042912D008291CD094F84100012823D0EF
:101CE000012010BD94F83E000128F9D184F83E206F
:101CF0002068C26842F0020209E094F83F0001281F
:101D0000EED184F83F202068C26842F00402C2602D
:101D10000EE094F840000128E2D184F840202068C9
:101D2000C26842F00802F2E784F841200C292AD068
:101D30000122206800F0B6FB15492068154A884248
:101D400001D0904203D1436C43F4004343642068C4
:101D500088420DD090420BD0B0F1804F08D00E4990
:101D6000884205D00D49884202D00D49884204D1ED
:101D7000816801F00701062903D0016841F00101E3
:101D80000160002010BD2068C26842F01002BEE76A
:101D9000002C0140003401400004004000080040D5
:101DA000000C004030B5044600680D0006D0042D3C
:101DB00008D0082D38D00C2D08D139E0C16821F0A9
:101DC000020102E0C16821F00401C160002229463D
:101DD000206800F067FB1D4B41F2111120688A104A
:101DE000984202D01A4B984209D1036A0B4206D19D
:101DF000036A134203D1436C23F400434364206815
:101E0000036A0B4206D1016A114203D1016821F035
:101E10000101016001207DB1042D10D0082D11D0E9
:101E200084F84100002030BDC16821F00801CCE7F2
:101E3000C16821F01001C8E784F83E00F2E784F899
:101E40003F00EFE784F84000ECE70000002C014081
:101E50000034014070B5044690F83C000D4601285E
:101E60000AD0012084F83C0042B1042A18D0082A84
:101E70002AD00C2A4DD139E0022070BD206800F034
:101E800031FB2068816941F0080181612068816926
:101E900021F004018161206881692A69114311E000
:101EA000206800F04FFB2068816941F40061816186
:101EB0002068816921F480618161206881692A69D3
:101EC00041EA0221816124E0206800F071FB206872
:101ED000C16941F00801C1612068C16921F00401B4
:101EE000C1612068C1692A69114311E0206800F0CE
:101EF00093FB2068C16941F40061C1612068C16938
:101F000021F48061C1612068C1692A6941EA022126
:101F1000C161002084F83C0070BD10B5040003D0FE
:101F200094F83D0010B107E0012010BD002084F8B6
:101F30003C00204600F01EF8022084F83D00211DE0
:101F4000206800F069FA012084F8460084F83E0019
:101F500084F83F0084F8400084F8410084F842008F
:101F600084F8430084F8440084F8450084F83D0078
:101F7000002010BD7047704770477047FEE70000B3
:101F80002DE9F04385B00024254800940194029483
:101F90000394816941F010018161816901F01001B0
:101FA0000491816941F020018161816901F0200182
:101FB0000491816941F004018161816901F00401AA
:101FC0000491816941F0080181618069DFF85480E2
:101FD00000F008004EF20105049000222946404618
:101FE000FEF7CCFEDFF840904FF40E770022394622
:101FF0004846FEF7C3FE0095022601250396CDE96B
:10200000015469464046FEF7BDFD00970396CDE9B1
:10201000015469464846FEF7B5FD05B0BDE8F083BA
:102020000010024000100140000C014010B596B0B5
:1020300000240F9410941194129413941C2108A856
:102040001494FEF7A8F820216846FEF7A4F8294862
:10205000274901600F21C0E901144FF6FF71C0E963
:10206000031444618461FFF707FA08B1FEF777FDB6
:102070004FF480500F900FA91E48FFF7ECFA08B1FB
:10208000FEF76DFD1B48FFF7F1FD08B1FEF767FD98
:10209000139413A917481494FFF7B0F908B1FEF789
:1020A0005EFD302008904FF42F70CDE909040B94A9
:1020B0000C940D94002208A90E480E94FFF774FCAE
:1020C00008B1FEF74CFD00944FF40050CDE90440F8
:1020D000029401940394694606480794FFF764F953
:1020E00008B1FEF73CFD0348FFF7D4FB16B010BD66
:1020F000002C01409C03002010B58EB000240794F2
:10210000089409940A940B941C2168460C94FEF7D9
:1021100042F81F484FF0804101600F21C0E90114CF
:102120004FF6FF71C0E903148461FFF7A5F908B108
:10213000FEF715FD4FF48050079007A91448FFF7EC
:102140008AFA08B1FEF70BFD1148FFF78FFD08B1C1
:10215000FEF705FD0B940BA90D480C94FFF74EF903
:1021600008B1FEF7FCFC302000904FF42F70CDE951
:1021700001040022694606480494FFF715FC08B1E3
:10218000FEF7EDFC0248FFF785FB0EB010BD000026
:10219000E403002010B58EB000240794089409943D
:1021A0000A940B941C2168460C94FDF7F4FF1F4819
:1021B0001D4901600F21C0E901144FF6FF71C0E90C
:1021C00003148461FFF758F908B1FEF7C8FC4FF417
:1021D0008050079007A91548FFF73DFA08B1FEF7B0
:1021E000BEFC1248FFF742FD08B1FEF7B8FC0B94A5
:1021F0000BA90E480C94FFF701F908B1FEF7AFFCEC
:10220000302000904FF42F70CDE901040022694680
:1022100006480494FFF7C8FB08B1FEF7A0FC03488A
:10222000FFF738FB0EB010BD000400402C04002066
:1022300010B58EB000240794089409940A940B9466
:102240001C2168460C94FDF7A6FF1F481D4901603C
:102250000F21C0E901144FF6FF71C0E90314846136
:10226000FFF70AF908B1FEF77AFC4FF480500790A7
:1022700007A91548FFF7EFF908B1FEF770FC1248FF
:10228000FFF7F4FC08B1FEF76AFC0B940BA90E48AB
:102290000C94FFF7B3F808B1FEF761FC3020009012
:1022A0004FF42F70CDE901040822694606480494D2
:1022B000FFF77AFB08B1FEF752FC0348FFF7EAFA92
:1022C0000EB010BD000800407404002010B58EB0A0
:1022D00000240794089409940A940B941C216846DE
:1022E0000C94FDF758FF1F481D49016041F61F413E
:1022F000C0E90114C821C0E9031480218161FFF7FE
:10230000BBF808B1FEF72BFC4FF48050079007A9EB
:102310001448FFF7A0F908B1FEF721FC1148FFF7B8
:10232000FCFD08B1FEF71BFC0B940BA90D480C94A7
:10233000FFF764F808B1FEF712FC6020CDE9000455
:1023400002940022694607480494FFF783FD08B110
:10235000FEF705FC0348FFF79DFA0EB010BD000024
:10236000000C0040BC040020FEE770477047704737
:10237000FEF710BD30B58FB028216846FDF70BFF82
:1023800014210AA8FDF707FF01210804CDE9001078
:102390000024029402250491CDE907504FF4E01087
:1023A00009906846FEF75AFE0F20CDE90A0568023B
:1023B000CDE90C4002210AA80E94FEF783FD0FB070
:1023C00030BD70470148FFF7B2B900009C03002000
:1023D0000148FFF7ACB900009C0300200148FFF75B
:1023E000A6B900009C0300200148FFF7A0B9000037
:1023F0009C0300200148FFF79AB90000E403002085
:102400000148FFF794B900002C0400200148FFF7B1
:102410008EB9000074040020F0B502681C4B1D4DFD
:102420001D4E1E4F1E4C4FF0804C984209D0A042CA
:1024300007D0604505D0A84203D0B04201D0B842D1
:1024400004D122F0700E4A6842EA0E02984209D086
:10245000A04207D0604505D0A84203D0B04201D0C9
:10246000B84203D122F44075CA682A434D6922F06C
:1024700080022A4302608A68C2620A6882629842C5
:1024800001D0A04201D10969016301214161F0BD80
:10249000002C01400004004000080040000C0040F7
:1024A0000034014010B501F01F030121046A994076
:1024B0008C430462016A9A401143016210BD10B559
:1024C000846842EA032224F47F440A432243826060
:1024D00010BD826822F070020A4342F00701816059
:1024E00070470000F0B5026A22F001020262036A3E
:1024F00042688469124E24F073050C682C4323F063
:1025000002058B682B430D4DA84201D0B04205D186
:1025100023F00807CB683B4323F00403A84201D013
:10252000B04205D14D6922F4407215438A692A43AD
:1025300042608461496841630362F0BD002C014040
:1025400000340140F0B5026A22F010020262026A11
:10255000436884690D6824F4E64444EA05248D68E0
:1025600022F0200242EA05120F4D104EA84201D07F
:10257000B04206D1CF6822F0800242EA071222F070
:102580004002A84201D0B04207D14D6923F4406314
:1025900043EA85038D6943EA8503436084614968A2
:1025A00081630262F0BD0000002C01400034014054
:1025B000F0B5026A22F480720262026A4368C4695A
:1025C00022F4007224F073050C68124E2C438D68BF
:1025D00042EA05220E4DA84201D0B04206D1CF6892
:1025E00022F4006242EA072222F48062A84201D06B
:1025F000B04207D14D6923F4405343EA05138D6976
:1026000043EA05134360C4614968C1630262F0BDD7
:10261000002C01400034014030B5026A22F480529F
:102620000262046A4268C3690D6823F4E64343EA20
:1026300005238D6824F4005444EA0534084DA8426B
:1026400002D0084DA84204D14D6922F4804242EAEA
:1026500085124260C36149680164046230BD0000B4
:10266000002C01400034014010B5036A046A24F0D4
:1026700001040462846924F0F00444EA021423F0A3
:102680000A020A438461026210BD10B5036A23F096
:10269000100303628369046A23F4704343EA02323D
:1026A00024F0A00343EA01118261016210BDFEE73C
:1026B000490050EAC12018BF04204A0D18BF40F05D
:1026C000010040F2FF72B2EB515F08BF40F0020020
:1026D000012808BF052070474100080218BF0420E8
:1026E0000A0E18BF40F001004FF07F4232EA0101AC
:1026F00008BF40F00200012808BF05207047090705
:10270000090E002804DB00F1E02080F80014704777
:1027100000F00F0000F1E02080F8141D70472DE953
:10272000F0414F1E00EBC7010446D1E900011546F8
:102730001E4637F006020DD02A463346FDF7B1FE9D
:102740007F1E04EBC703D3E90023FDF703FE37F038
:102750000602F1D1022F25D0042F13D0062F18BF67
:10276000BDE8F0812A463346FDF79BFED4E90A23F3
:10277000FDF7F0FD2A463346FDF793FED4E9082322
:10278000FDF7E8FD2A463346FDF78BFED4E9062324
:10279000FDF7E0FD2A463346FDF783FED4E9042326
:1027A000FDF7D8FD2A463346FDF77BFED4E9022328
:1027B000FDF7D0FD2A463346FDF773FED4E900232A
:1027C000BDE8F041FDF7C6BD0122FEF7CEB800001E
:1027D000024A00201107FEF7C8B8000001FDFFFF04
:1027E0000121FDF7ABBD61214FF0E040FDF7A6BD33
:1027F0006FF05E010807FDF7A1BD02E008C8121FD7
:1028000008C1002AFAD170477047002001E001C1D9
:10281000121F002AFBD17047014908607047000071
:102820005800002070B50C464FF400030146984252
:1028300007DB2046FDF744FDFDF750FF00F038F8B8
:102840001CE0164A91421DD3154D164E9442204667
:102850000AD2FDF735FDFDF741FF00F029F82A46C1
:102860003346FDF777FD09E0FDF72AFDFDF736FF5A
:1028700000F01EF82A463346FDF70DFEBDE8704015
:10288000FDF770BF10F0FF4F02D19C4201DB0648FC
:1028900070BD9442FCD3054870BD000000008080EC
:1028A0006F1283C0CA210940560EC93F560EC9BFD8
:1028B0002DE9F84F04460D4621F000400091734980
:1028C000814211DC7249884201DC06D12CB12046DC
:1028D0002946BDE8F84FFFF777BF6E48002DCCBF03
:1028E0006D496E49BDE8F88F6D49814211DD6D4932
:1028F0008142D8BF4FF0FF366DDD20462946FFF7F5
:10290000D7FE042808BFFFF763FF20462946BDE82D
:10291000F88F6549654F25F00045814233DD6449F4
:10292000814219DD002632464FF080432046294679
:10293000FDF710FD80468A46012220462946FEF713
:1029400014F800223B46FDF7A6FD42465346FDF72C
:102950001AFE04460D463EE001260022BA463B46DA
:1029600020462946FDF7F6FC80460F4600225346D6
:1029700020462946FDF78FFD42463B46FDF703FE04
:1029800004460D4627E04B4981421BDDDFF828A1B4
:1029900002260022534620462946FDF782FD0022EA
:1029A0003B46FDF7D7FC80460F46002253462046A3
:1029B0002946FDF770FD42463B46FDF7E4FD04461F
:1029C0000D4608E0032622462B4600203B49FDF732
:1029D000DAFD04460D4622462B4610461946FDF701
:1029E00060FD8B46824602460B46FDF75AFD0746C0
:1029F0000246334888460B4606217844FFF78FFE8F
:102A000052465B46FDF74DFD82462E488B463A46C0
:102A1000434605217844FFF782FE3A464346FDF7D8
:102A200040FD02460B46002E504659460CDAFDF793
:102A300091FC22462B46FDF734FD01B022462B4681
:102A4000BDE8F04FFDF72ABDFDF784FC22462B467A
:102A5000FDF727FD1C4A7A4402EBC603D3E90023A5
:102A6000FDF719FD22462B46FDF715FD174A7A445E
:102A700002EBC603D3E90023FDF710FD009A002AFC
:102A8000B8BF81F00041BDE8F88F0000000010449D
:102A90000000F07F182D4454FB21F93FFB21F9BFC2
:102AA0000000DC3F0000203E0000F33F0000F03F4C
:102AB0000000E63F008003400000F83F0000F0BF48
:102AC0005207000010070000AE0600007606000066
:102AD0002DE9F04104464FF019404E49002500EB26
:102AE000440088424AD84C492046FDF7B7FBFDF721
:102AF000C1FE8046FDF7A1FF064648494046FDF766
:102B0000ADFB074646494046FDF7A8FB2146FDF7C9
:102B1000A2FB3946FDF79CFB04464249FDF79EFBAC
:102B20004149FDF743FB2146FDF798FB6FF041411A
:102B3000FDF73CFB2146FDF791FB3C49FDF736FBD9
:102B40002146FDF78BFB0146394806F00304784423
:102B500050F82400FDF782FB3649794451F82410DF
:102B6000FDF724FB3449794451F82410FDF71EFB8E
:102B7000B11085BBBDE8F041FDF7E0BB4FF0FF4170
:102B800031EA040018D04FF0CE41B1EB440F84BFBE
:102B90004FF07E50BDE8F0812849B1EB440F28BFCB
:102BA0000125A0D20220FFF737FE14F0004F0ED00F
:102BB000BDE8F041FFF71CBE204614F5000F04BF2E
:102BC0000020BDE8F081BDE8F041FFF709BEBDE897
:102BD000F041FFF708BEFDF7B1FB04000BD0B4F1E4
:102BE000FF4F0FD0FFF778FD042808BFFFF700FE66
:102BF0002046BDE8F0810220FFF70EFEBDE8F0415F
:102C0000FFF7F6BD0220FFF707FEBDE8F041FFF732
:102C1000EABD00000000501E3BAAB840F4FD053795
:102C20000070313E12BB2A3D12BB2A3EFFFF7F3FA0
:102C30004E06000032060000160600000000A085C7
:102C4000FEF7B0F8FFF796FBFFF79AF9FFF7EEF9FA
:102C5000FFF752FAFFF79EFAFFF7EAFAFFF736FBA3
:102C6000074C084D2146284600F032F9064928460F
:102C700000F02EF92146084600F02AF9FEE7000090
:102C80000000A0C20000F0C20000A0422DE9F05FE9
:102C9000874CDFF818B2874EA368E361E368864F7C
:102CA000236200F073F9E169A068FDF781FDE16935
:102CB000A06823D2FDF7CCFA606220F00040FDF757
:102CC0000DFD00225B46FDF7ECFB32463B46FDF76F
:102CD0005AFC0022794BFDF756FC0022784BFDF799
:102CE000E0FB0022774BFDF7DCFB0022764BFDF783
:102CF0004AFCFDF7D4FC0122606127E0FDF74EFDA0
:102D000028D2E169A068FDF7A3FA606220F00040D4
:102D1000FDF7E4FC00225B46FDF7C3FB32463B4671
:102D2000FDF731FC0022654BFDF72DFC0022644BC2
:102D3000FDF7B7FB0022634BFDF7B3FB0022624BAC
:102D4000FDF721FCFDF7ABFC0022606110215F481C
:102D5000FEF714F82169606AFDF728FA0546E0627B
:102D6000E068FDF7BBFCB1463246B8463B46FDF78E
:102D700095FB07460E462846FDF7B0FC3A4633461B
:102D8000FDF7D8FC3BD2E06AFDF7A8FC06460F46EB
:102D9000E068FDF7A3FC4A464346FDF77FFB8A4601
:102DA000054632463B46FDF776FBFDF7DBFC064663
:102DB000A06228465146FDF7D5FC206126F0004070
:102DC000FDF78CFC00225B46FDF76BFB4A46434651
:102DD000FDF7D9FB0022394BFDF7D5FB0022384B1C
:102DE000FDF75FFB0022374BFDF75BFB0022364B04
:102DF000FDF7C9FBFDF753FC0122A0614DE0E0683F
:102E0000FDF76CFC4E464A464346FDF747FB054638
:102E10000F46E06AFDF762FC2A463B46FDF772FC6E
:102E200041D8E06AFDF75AFC05460F46E068FDF719
:102E300055FCB14632464346FDF730FB8A4606460E
:102E40002A463B46FDF727FBFDF78CFC0546A062B2
:102E500030465146FDF786FC206125F00040FDF725
:102E60003DFC00225B46FDF71CFB4A464346FDF74E
:102E70008AFB0022114BFDF786FB0022104BFDF769
:102E800010FB00220F4BFDF70CFB00220E4BFDF751
:102E90007AFBFDF704FC0022A061BDE8F05F202171
:102EA0000A48FDF76BBFBDE8F09F00000080664058
:102EB000100000206F1283C0CA21094000807640B4
:102EC000000099400000484000003440000C0140E0
:102ED0002DE9FC41FFF7DAFE4FF081440025224E38
:102EE000224F2349CDE9005433463A46A1F1C800A8
:102EF000FDF7D0FD1F49CDE9005433463A46A1F114
:102F0000C800FDF7C7FD1B49CDE9005433463A46DA
:102F100001F16400FDF7BEFD00224EF201011648EA
:102F2000FDF72CFF1548FEF751FB1548FEF74EFB49
:102F30001448FEF74BFB1448FEF748FB00210F48EE
:102F4000FEF7C2FE00210E48FEF7BEFE00210D482E
:102F5000FEF7BAFE08210C48FEF7B6FEBDE8FC41BC
:102F600040F6B830FDF7FCBD0000FA4400004842CE
:102F70004401002070020020001001409C0300204A
:102F8000E40300202C040020740400202DE9F05FED
:102F900083468A460846FDF761F9044659460846C5
:102FA000FDF75CF92146FDF701F98146FDF796FB37
:102FB00000F06CF8FDF7D6FB304C07460121206885
:102FC0008046FDF7BBF961680E46FDF747F90546F7
:102FD00031460846FDF742F9064641460846FDF7E8
:102FE0003DF901464846FDF733F93146FDF730F922
:102FF0002946FDF765F906460146FDF72FF94FF022
:103000007E51FDF728F9FDF769FB00F03FF8FDF769
:10301000A9FB054601463046FFF704FCE060514637
:103020005846FFF7FFFB8046606829468146FDF75A
:1030300015F93946FDF744F9054631464846FDF78E
:103040000DF92168FDF7B2F83946FDF739F929463F
:10305000FFF7E8FB01464046FDF7FAF80849A06093
:10306000884208D3FDF73AFB064A074BFDF772F991
:10307000FDF778FBA060BDE8F09F00001000002085
:10308000560E49C06F1283C0CA2119402DE9F04184
:1030900006460F46FDF780FC041E0D4618BF0120B2
:1030A000284320F00040C0F17F6000F1E040C00FF5
:1030B0000ED0301C18BF0120384320F00040C0F172
:1030C0007F6000F1E040C00F04BF0120FFF7A4FBC8
:1030D00020462946BDE8F081000000000000000005
:1030E00001020304060708094FBB610567ACDD3F19
:1030F000182D4454FB21E93F9BF681D20B73EF3F1F
:10310000182D4454FB21F93FE2652F227F2B7A3C96
:10311000075C143326A6813CBDCBF07A8807703C4F
:10312000075C143326A6913CC4EB98999999C9BFC2
:10313000711623FEC671BCBF6D9A74AFF2B0B3BFF7
:103140009AFDDE522DDEADBF2F6C6A2C44B4A2BFB7
:103150000D5555555555D53FFF8300922449C23F23
:103160006E204CC5CD45B73F513DD0A0660DB13F57
:10317000EB0D76244B7BA93F11DA22E33AAD903F69
:103180000000803F0030983F0000B53F0040D73F2F
:1031900000000000320A7E397F661E395B991F39B4
:1031A0000000803FF037983FF304B53FFD44D73F20
:1031B000D0310008000000205C000000FA27000861
:1031C0002C3200085C000020AC0800000A2800082F
:1031D00058020000B80B0000E803000001010101E3
:1031E0000000C8420000C8428F0906BF9F212D4041
:1031F0006EEDDA3E0000000000000000000000005C
:1032000000000000000000000000000000000000BE
:10321000000000000000000001000000100000009D
:0C322000000000000024F400000000008A
:0400000508000131BD
:00000001FF
